:100000002CC066C043C042C041C040C03FC03EC0DB
:100010003DC03CC03BC03AC039C038C037C036C014
:1000200035C034C033C000CDD914F13C28E5A16CF3
:1000300078B5509D894412010101FF000008811725
:100040009F0C040100000001090212000101008060
:10005000320904000000FF00000011241FBECFED94
:10006000CDBF10E0A0E6B0E0EAEDF7E002C00590F9
:100070000D92A236B107D9F710E0A2E6B0E001C0B8
:100080001D92AF39B107E1F79ED3A5C3B9CFDC010B
:100090009FEF8FEF660FB9F046E2F0E0229560FF28
:1000A0002D91E82FE227EF70929582958F70392F6E
:1000B000307F832B9F70E40F359193273170932706
:1000C00083276A9559F7809590958D939D93089510
:1000D0000F931F932F93DF93CF930FB70F938299B3
:1000E000FECF82990BC0829909C0829907C082997C
:1000F00005C0829903C000E40ABFA8C0C091870070
:10010000DD27C857DF4F0BE01CE024E0829BE9CFDE
:100110003F934F936F9360B330E803C060B3432BBA
:10012000499344276C702627215020B32C70A9F1E5
:1001300037953C3FA0F56227615060B36C703795EE
:100140003C3F98F526272150379520B32C703C3F33
:1001500090F56227615037953C3F60B36C70A0F515
:100160002627215037953C3FC8F520B32C706227D5
:10017000615037953C3FB0F50A9560B37AF06C70EA
:100180002627215037953C3F88F520B32C706227F5
:10019000615037953C3F10F22DC031C048C06127F7
:1001A00020B32C703F774160C6CF3F77426060B389
:1001B0006C702127C7CF3F774460612720B32C7034
:1001C000622761503795C8CF3F774860212731605B
:1001D00060B36C70262721503795C6CF3F774061BA
:1001E0006127C1CF3F7740622127C4CF3F7740646A
:1001F0006127C9CF3F774068212700C08FCF30E407
:100200003ABF0B500195033090F0C01B2881233C6E
:1002100091F12B3481F119811F7740919E001417C1
:1002200031F42936D9F02D3249F0213E39F04427F6
:10023000409362006F914F913F9108C020936200FC
:100240006F914F913F910AB706FD49CF0F910FBFB4
:10025000CF91DF912F911F910F9118950091790007
:100260000023F1F0409186004423D1F440937900BB
:10027000CAE7D0E018C0209162002223C1F2409169
:100280008600442369F40093860020938500009142
:1002900087004BE0401B40938700C0E6D0E002C0DF
:1002A000C1E6D0E001E022B3237F286011B31C60D7
:1002B00022BB11BB1CE030E830FF212722BB379561
:1002C00047954C3FC0F530FF2127379522BB479516
:1002D0004C3FA8F530FF21273795000022BB4795FA
:1002E0004C3F78F530FF21273795000022BB47951A
:1002F0004C3F48F530FF2127699122BB3795479540
:100300004C3F18F530FF2127379522BB47954C3FCE
:1003100000F530FF21273795479522BB4C3FD8F495
:1003200030FF21273795362F479522BB4C3FA8F445
:100330000A9512F614C02127442722BBC2CF2127D9
:10034000C5CF2127CBCF2127D1CF2127442722BBBF
:10035000D7CF2127DACF2127DFCF2127E5CF237F72
:1003600022BB6F914F913F9100E40ABFDF91CF9183
:1003700011B3022F286022BB137FDFBFDF912F91C3
:10038000000011BB02BB1F910F91189585B78360C8
:1003900085BF8BB780648BBF789408951F93CF93EC
:1003A000DF9360918600662309F461C08091870025
:1003B000CCE0D0E0C81BD109C857DF4F81E0809363
:1003C0006300809185008D3209F043C01E818F81CA
:1003D00081111FEF8881807661F58981882321F45E
:1003E0001882198292E02DC0853021F48A81809391
:1003F00067009FC0863091F482E0809363008B8118
:10040000813021F492E1C6E3D0E01BC0823009F0D4
:1004100090C0959A92E1C8E4D0E013C0883019F4F6
:1004200081E0888304C08A3009F083C0188291E09B
:1004300008C0CE01F0D0982F8F3F19F483E080934D
:100440006300191708F0192FD0936600C093650058
:1004500005C0635011F0CE015CD110E01093640030
:1004600083EC80937A00109279001092860080913C
:100470007900882309F053C020916300222309F4F6
:100480004AC080917A0098E8892780937A00109179
:100490006400193010F018E002C0112379F1233004
:1004A00031F4612F8BE790E01FD1182F22C03091DB
:1004B000650040916600213061F4832F942FFC0188
:1004C000ABE7B0E081918D938E2F831B8117D0F322
:1004D0000CC0832F942FFC01ABE7B0E084913196E0
:1004E0008D938E2F831B8117C8F3F0936600E093E2
:1004F000650080916400811B80936400612F8BE70D
:1005000090E0C5DD1D5F109379001350183038F46A
:100510001092630004C08091670080939E008AE07F
:1005200002C0815019F0839BFCCF05C01092670078
:1005300002C090E088CFDF91CF911F9108951F9363
:10054000FC01DB017091680023C0108160E890E03D
:1005500020E030E0C79A862F812309F0C59A072E44
:1005600000C000000A94E1F7990FB6999F5FC79801
:10057000072E00C000000A94E1F7C59866952F5F2A
:100580003F4F2830310531F74150504031969D930F
:1005900041155105D1F61F910895409178002091A1
:1005A0006B0030916C002F5F3F4F30936C002093B5
:1005B0006B002150304090916F0090937000642F39
:1005C00070E0687370706115710551F497FD08C093
:1005D00020FF04C0892F886080937000369527958E
:1005E000832F30937100209372006031710511F0F8
:1005F00080E007C0880F880F880F892B80937100D7
:1006000081E090E050E04770507080599F4F64E760
:1006100070E095DF0895FC012181253089F4828105
:10062000809368008481882311F091E101C091E0FA
:1006300084E080937800949881EB87BB98BB05C0D9
:10064000263029F417BA18BA949A90E04BC02F308C
:1006500039F4828180937800848180936F00F5CF94
:10066000273039F40296BF0144E050E068DF94E09F
:1006700039C02E3039F40296BF0141E050E05FDF0F
:1006800091E030C0283039F4828180936900838101
:1006900080936A00DACF8481958190936C00809377
:1006A0006B00293019F49FEF20E216C02B3019F4AB
:1006B0009FEF20EA11C08281938190936E00809316
:1006C0006D002A3019F490E020E406C02C3019F4B3
:1006D00090E020EC01C090E080917800887311F4E4
:1006E00020936F00892F08950F931F93CF93DF936B
:1006F000062FEC0110E005C050DF80917700899350
:100700001F5F1017C8F3802FDF91CF911F910F91BA
:1007100008957F928F929F92AF92BF92CF92DF9275
:10072000EF92FF920F931F93CF93DF93862EA090AB
:100730006D00B0906E0090906900C0906A002091AA
:100740006800E22EFF2425E0EE0CFF1C2A95E1F75D
:100750008C01DD2490E6792E26C0F80180818093FB
:1007600073001BDF80917000872580937000C0E0CC
:10077000D0E013C080E790E064E770E044E050E030
:10078000DEDE9091770080917300981721F499151F
:1007900011F09C1529F4CE0DDF1DCA15DB0550F3B1
:1007A000D3940F5F1F4FD814C0F2DF91CF911F91E8
:1007B0000F91FF90EF90DF90CF90BF90AF909F9000
:1007C0008F907F900895949A80E781BBDFDD80E56C
:0A07D00082BBE4DDFECFF894FFCFFA
:0207DA00D25AF1
:00000001FF
