:100000002EC05FC03CC03BC03AC039C038C037C00A
:1000100036C035C034C033C032C031C030C02FC04C
:100020002EC02DC02CC02BC02AC000CDD914F13C4D
:1000300028E5A16C78B5509D894412010101FF00AB
:10004000000881179F0C0401000000010902120042
:1000500001010080320904000000FF0000001124AB
:100060001FBECFE5D1E0DEBFCDBF10E0A2E6B0E01D
:1000700001C01D92AF39B107E1F7E4D3A5C5C0CFE8
:10008000DC019FEF8FEF660FB9F04AE2F0E02295B6
:1000900060FF2D91E82FE227EF70929582958F7087
:1000A000392F307F832B9F70E40F35919327317068
:1000B000932783276A9559F7809590958D939D9303
:1000C00008950F931F932F93DF93CF930FB70F9341
:1000D0008299FECF82990BC0829909C0829907C08C
:1000E000829905C0829903C000E40ABFA8C0C091EC
:1000F0008700DD27C857DF4F0BE01CE024E0829B20
:10010000E9CF3F934F936F9360B330E803C060B380
:10011000432B499344276C702627215020B32C7021
:10012000A9F137953C3FA0F56227615060B36C7030
:1001300037953C3F98F526272150379520B32C70F2
:100140003C3F90F56227615037953C3F60B36C703F
:10015000A0F52627215037953C3FC8F520B32C70D9
:100160006227615037953C3FB0F50A9560B37AF04D
:100170006C702627215037953C3F88F520B32C70B2
:100180006227615037953C3F10F22DC031C048C006
:10019000612720B32C703F774160C6CF3F77426024
:1001A00060B36C702127C7CF3F774460612720B3CD
:1001B0002C70622761503795C8CF3F774860212760
:1001C000316060B36C70262721503795C6CF3F77DA
:1001D00040616127C1CF3F7740622127C4CF3F777D
:1001E00040646127C9CF3F774068212700C08FCF87
:1001F00030E43ABF0B500195033090F0C01B2881CA
:10020000233C91F12B3481F119811F7740919E009D
:10021000141731F42936D9F02D3249F0213E39F046
:100220004427409362006F914F913F9108C0209303
:1002300062006F914F913F910AB706FD49CF0F9130
:100240000FBFCF91DF912F911F910F9118950091C2
:1002500079000023F1F0409186004423D1F44093CB
:100260007900CAE7D0E018C0209162002223C1F2D1
:1002700040918600442369F4009386002093850012
:10028000009187004BE0401B40938700C0E6D0E020
:1002900002C0C1E6D0E001E022B3237F286011B3A1
:1002A0001C6022BB11BB1CE030E830FF212722BBC1
:1002B000379547954C3FC0F530FF2127379522BB36
:1002C00047954C3FA8F530FF21273795000022BB0A
:1002D00047954C3F78F530FF21273795000022BB2A
:1002E00047954C3F48F530FF2127699122BB379550
:1002F00047954C3F18F530FF2127379522BB47958E
:100300004C3F00F530FF21273795479522BB4C3FE6
:10031000D8F430FF21273795362F479522BB4C3F25
:10032000A8F40A9512F614C02127442722BBC2CF95
:100330002127C5CF2127CBCF2127D1CF2127442764
:1003400022BBD7CF2127DACF2127DFCF2127E5CF47
:10035000237F22BB6F914F913F9100E40ABFDF9151
:10036000CF9111B3022F286022BB137FDFBFDF9133
:100370002F91000011BB02BB1F910F911895DF93C5
:10038000CF93CDB7DEB780916300082E00C0000088
:100390000A94E1F7CF91DF910895DF93CF9300D0D6
:1003A0000F92CDB7DEB78B83198280E88A8335C080
:1003B000A8E3B0E0E8E3F0E0808180688C939B8163
:1003C0008A818923882339F0A8E3B0E0E8E3F0E0EC
:1003D000808180628C93D3DF8981880F8983E6E3F3
:1003E000F0E08081882F90E080749070009719F081
:1003F00089818F5F8983A8E3B0E0E8E3F0E0808142
:100400008F778C93BCDFA8E3B0E0E8E3F0E0808175
:100410008F7D8C938A8186958A838A81882341F691
:1004200089810F900F900F90CF91DF910895DF9306
:10043000CF93CDB7DEB729970FB6F894DEBF0FBEC6
:10044000CDBF9D838C837F836E83598748871BC074
:1004500088859985019799878887EC81FD818081BE
:100460008B838C819D8101969D838C831A828B81E5
:1004700094DF8A83EE81FF818A8180838E819F81D0
:1004800001969F838E8388859985009709F7299621
:100490000FB6F894DEBF0FBECDBFCF91DF910895A8
:1004A000DF93CF9300D000D00F92CDB7DEB71D827F
:1004B00080917300882F90E0877090709A83898371
:1004C00080916600909167009C838B830196909346
:1004D00067008093660080916A0080936B00809132
:1004E0007300882F90E0887390700097A9F4809132
:1004F0006A0088238CF08B819C81817090708823A6
:1005000029F080916B00886080936B008B819C81C7
:10051000969587959C838B838B819C81892F9927C6
:1005200080936C008B8180936D0080917300882F85
:1005300090E0887390708031910581F480916C0017
:10054000880F880F880F80936C0090916C008091C9
:100550006A00892B80936C0081E08D838D81882FC8
:1005600090E085599F4F49815A812FE630E0B901CB
:100570005EDF0F900F900F900F900F90CF91DF9153
:100580000895DF93CF9300D000D000D0CDB7DEB771
:100590009E838D831A828D819E81FC01319680819C
:1005A0008B838B81853031F58D819E81FC01329664
:1005B00080818093630081E08C838D819E81FC012A
:1005C00034968081882319F08C8180618C8384E04B
:1005D00080937300A2E3B0E0E2E3F0E080818F7EDD
:1005E0008C93E7E3F0E081EB8083E8E3F0E08C813B
:1005F00080838DC08B81863071F4E7E3F0E0108258
:10060000E8E3F0E01082A2E3B0E0E2E3F0E0808112
:1006100080618C937CC08B818F3079F48D819E8139
:10062000FC0132968081809373008D819E81FC0154
:100630003496808180936A006AC08B81873061F430
:100640008D819E8102962D813E81B90144E050E06A
:10065000EEDE84E08A835BC08B818E3061F48D8115
:100660009E8102962D813E81B90141E050E0DFDE9E
:1006700081E08A834CC08B81883079F48D819E81A2
:10068000FC0132968081809364008D819E81FC0103
:1006900033968081809365003AC08D819E81FC01F4
:1006A00034968081918190936700809366008B815E
:1006B000893029F480E289838FEF8A831DC08B8182
:1006C0008B3029F480EA89838FEF8A8315C08D816E
:1006D0009E81FC0132968081918190936900809384
:1006E00068008B818A3019F480E4898305C08B818E
:1006F0008C3011F480EC898380917300882F90E016
:1007000088739070009719F4898180936A008A81B8
:1007100026960FB6F894DEBF0FBECDBFCF91DF9106
:100720000895DF93CF9300D000D0CDB7DEB79B8381
:100730008A836C8319820FC0B3DE8981282F30E051
:100740008A819B81FC01E20FF31F809172008083FC
:1007500089818F5F898399818C81981768F38C8157
:100760000F900F900F900F90CF91DF910895DF932E
:10077000CF93CDB7DEB727970FB6F894DEBF0FBE85
:10078000CDBF9E838D836F831C824EC08C81282FAA
:1007900030E08D819E81FC01E20FF31F8081809308
:1007A0006E007EDE90916B0080E6892780936B005F
:1007B0001B821A822DC08BE690E02FE630E0B90153
:1007C00044E050E034DE80917200898390916E00A5
:1007D0008981981751F4909164008981891729F0D3
:1007E0009091650089818917E1F480916300882FD9
:1007F00090E0880F991F82959295907F9827807F2F
:1008000098279C018A819B81820F931F9B838A83F7
:1008100020916800309169008A819B81821793073B
:1008200050F28C818F5F8C839C818F81981708F4A4
:10083000ADCF27960FB6F894DEBF0FBECDBFCF91D8
:10084000DF910895A2E3B0E0E2E3F0E0808180610F
:100850008C93E1E3F0E080E7808358D1E2E3F0E0BD
:1008600080E5808369D1FECFDF93CF9300D000D0A5
:1008700000D0CDB7DEB79D838C836E8381E08093FB
:1008800074001B82809185008D3209F098C08C81A4
:100890009D81FC013696808189838C819D81FC013C
:1008A00037968081882311F08FEF8983EC81FD8159
:1008B000808180768A838A81882309F069C08C814F
:1008C0009D81FC0131968081882359F482E08B83DD
:1008D000EC81FD8110828C819D81FC01319610821A
:1008E00061C08C819D81FC0131968081853041F40D
:1008F0008C819D81FC01329680818093780052C06A
:100900008C819D81FC0131968081863031F582E0B9
:10091000809374008C819D81FC01339680818130AD
:1009200039F48AE390E09D838C8382E18B833AC023
:100930008C819D81FC0133968081823099F58CE415
:1009400090E09D838C8382E18B83A2E3B0E0E2E3BD
:10095000F0E0808180628C9325C08C819D81FC01B8
:1009600031968081883039F4EC81FD8181E080838B
:1009700081E08B8317C08C819D81FC013196808141
:100980008A3081F4EC81FD81108281E08B830AC082
:100990008C819D81F6DD8B838B818F3F19F483E001
:1009A000809374009B818981891710F489818B83DE
:1009B0008C819D81909377008093760007C08E8113
:1009C000882321F08C819D816E81D1DE8B81809383
:1009D000750083EC80937A0026960FB6F894DEBFFC
:1009E0000FBECDBFCF91DF910895DF93CF93CDB7E9
:1009F000DEB72A970FB6F894DEBF0FBECDBF909139
:100A00007A0088E8892780937A00809175008A8728
:100A10008A85893010F088E08A878BE790E09F8391
:100A20008E838A85882309F45BC0809174008330AB
:100A300031F48E819F816A8574DE8A874BC08091F4
:100A40007600909177009987888780917400813033
:100A5000D1F41D8213C0E885F9858081EE81FF8184
:100A600080838E819F8101969F838E83888599855F
:100A70000196998788878D818F5F8D839D818A8577
:100A8000981748F321C01D821BC0888599859B83D8
:100A90008A83EA81FB818491898389818C8388851B
:100AA0009985019699878887EE81FF818C81808363
:100AB0008E819F8101969F838E838D818F5F8D8331
:100AC0009D818A85981708F388859985909377008A
:100AD00080937600809175009A85891B80937500BC
:100AE0008BE790E06A85CCDA8A858D5F8093790008
:100AF0008A85883010F4109274002A960FB6F89404
:100B0000DEBF0FBECDBFCF91DF910895DF93CF93AE
:100B1000CDB7DEB7A5E5B0E0E5E5F0E08081836024
:100B20008C93ABE5B0E0EBE5F0E0808180648C93E2
:100B30007894CF91DF910895DF93CF930F92CDB743
:100B4000DEB7809186008823B1F080918700282F3E
:100B500030E08CE090E0821B930B9C0128573F4FC4
:100B600080918600482F4350C901642F7DDE10928A
:100B700079001092860080917900882351F4809149
:100B80007400882311F031DF04C0809178008093D5
:100B90009E008AE0898303C089818150898389818D
:100BA000882349F0E0E3F0E08081882F90E08870AE
:100BB0009070009789F38981882311F4109278004E
:0C0BC0000F90CF91DF910895F894FFCFC3
:020BCC00D25AFB
:00000001FF
