:100000002EC06EC047C046C045C044C043C042C0B9
:1000100041C040C03FC03EC03DC03CC03BC03AC0F4
:1000200039C038C037C036C035C000CDD914F13C16
:1000300028E5A16C78B5509D894412010101FF00AB
:10004000000881179F0C0401000000010902120042
:1000500001010080320904000000FF0000001124AB
:100060001FBECFE5D1E0DEBFCDBF10E0A0E6B0E01F
:10007000E4EAFAE002C005900D92A236B107D9F782
:1000800010E0A2E6B0E001C01D92A73AB107E1F787
:10009000F8D206C5B5CFDC019FEF8FEF4AE2F0E062
:1000A00018C02D918227E82FEF70E40F3591E82FCB
:1000B000E295892F932F3170E327EF709295392FB6
:1000C0009F70307E8327E40F3591932731709327FB
:1000D00083276A9532F7809590958D939D93089527
:1000E0000F931F932F93DF93CF930FB70F938299A3
:1000F000FECF82990BC0829909C0829907C082996C
:1001000005C0829903C000E40ABFACC0C0918F0053
:10011000DD27C057DF4F0BE01CE024E0829BE9CFD6
:100120003F934F936F9360B330E803C060B3432BAA
:10013000499344276C702627215020B32C70A9F1D5
:1001400037953C3FA0F56227615060B36C703795DE
:100150003C3F98F526272150379520B32C703C3F23
:1001600090F56227615037953C3F60B36C70A0F505
:100170002627215037953C3FC8F520B32C706227C5
:10018000615037953C3FB0F50A9560B37AF06C70DA
:100190002627215037953C3F88F520B32C706227E5
:1001A000615037953C3F10F22DC031C052C06127DD
:1001B00020B32C703F774160C6CF3F77426060B379
:1001C0006C702127C7CF3F774460612720B32C7024
:1001D000622761503795C8CF3F774860212731604B
:1001E00060B36C70262721503795C6CF3F774061AA
:1001F0006127C1CF3F7740622127C4CF3F7740645A
:100200006127C9CF3F774068212700C08FCF30E4F6
:100210003ABF0B500195C01BD040288121FD2DC055
:1002200019811F774091A600141799F4293691F48B
:10023000009180000023F1F040918E004423D1F41E
:100240004093800040918C004093A600C1E8D0E02C
:100250002BC02227209362006F914F913F910AB7E4
:1002600006FD45CF0F910FBFCF91DF912F911F91C9
:100270000F911895C1E6D0E016C0217059F3209176
:100280006200222339F340918E00442399F70093B2
:100290008E0020938D0000918F004BE0401B409317
:1002A0008F00C0E6D0E001E022B3237F286011B3C5
:1002B0001C6022BB11BB1CE030E830FF212722BBB1
:1002C000379547954C3FC0F530FF2127379522BB26
:1002D00047954C3FA8F530FF21273795000022BBFA
:1002E00047954C3F78F530FF21273795000022BB1A
:1002F00047954C3F48F530FF2127699122BB379540
:1003000047954C3F18F530FF2127379522BB47957D
:100310004C3F00F530FF21273795479522BB4C3FD6
:10032000D8F430FF21273795362F479522BB4C3F15
:10033000A8F40A9512F614C02127442722BBC2CF85
:100340002127C5CF2127CBCF2127D1CF2127442754
:1003500022BBD7CF2127DACF2127DFCF2127E5CF37
:10036000237F22BB6F914F913F9100E40ABFDF9141
:10037000CF9111B3022F286022BB137FDFBFDF9123
:100380002F91000011BB02BB1F910F911895AF92E6
:10039000BF92CF92DF92EF92FF920F931F93CF9372
:1003A000DF938C015B01D42E1EC0F801C080FF24B6
:1003B00080E8E82EC0E0D0E08E2D8C2109F0C59AAF
:1003C000EAD0C79AE8D0FF0CB699F394C598C798BD
:1003D000E6942196C830D10579F7DA940F5F1F4F64
:1003E000F501F1925F01DD2001F7DF91CF911F91BF
:1003F0000F91FF90EF90DF90CF90BF90AF90089556
:100400001F93CF93DF93EC011981173031F40296DB
:10041000BE0144E0BCDF24E011C01E3031F402967E
:10042000BE0141E0B4DF21E009C0183031F48A8117
:10043000809376008B818093710020E08C819D8178
:100440009093700080936F00193011F480E203C024
:100450001B3021F480EA809372002FEF8A819B8108
:1004600090937500809374001A3011F480E403C0F7
:100470001C3019F480EC80937200822FDF91CF91B1
:100480001F91089520916F00309170002F5F3F4FB2
:100490003093700020936F002150304080917200A3
:1004A00087FF02C0220F331F80937C0020FF03C010
:1004B000886080937C00832F869580937D0036959D
:1004C000279520937E008CE790E067E770E044E09A
:1004D0005EDF08950F931F93CF93DF93062FEC01F8
:1004E00010E005C0CFDF80917A0089931F5F10175D
:1004F000C8F3802FDF91CF911F910F910895DF9264
:10050000EF92FF920F931F93CF93DF93E62E8C0110
:10051000FF2460E6D62E35C0F801808180937F00ED
:10052000B1DF80917C008D2580937C00C0E0D0E01D
:100530001EC08CE790E067E770E044E028DF909110
:100540007A0080917F00981741F480917600981787
:1005500021F080917100981789F48091730090E0E8
:1005600055E0880F991F5A95E1F7C80FD91F809160
:10057000740090917500C817D907D8F2F3940F5FF3
:100580001F4FFE1448F2DF91CF911F910F91FF9002
:10059000EF90DF90089580917300082E00C0000056
:1005A0000A94E1F70895019779F48AE494E090932E
:1005B0006600809365008DEB93E0909364008093D8
:1005C000630088E893E00EC08AE692E090936600AC
:1005D000809365008FE792E09093640080936300BE
:1005E00080E092E090936800809367000895DC01BA
:1005F00011968C911197853019F512968C9112975E
:100600008093730014968C91882311F091E101C0BE
:1006100091E0949881EB87BB98BB8AE692E0909337
:100620006600809365008FE792E09093640080936A
:10063000630080E092E090936800809367000CC0B4
:10064000863021F417BA18BA949A06C0803131F472
:1006500012968C9190E0A7DF80E00895E09167000A
:10066000F0916800CD0109950895E0916500F09141
:10067000660009950895E0916300F0916400099582
:10068000089580E781BB94988C9A30D180E582BB35
:1006900038D1FECF9F92AF92BF92CF92DF92EF926E
:1006A000FF920F931F93CF93DF937C015B018A012D
:1006B00020C0F701908080E8C82EDD24C0E0D0E0A3
:1006C000C79A8C2D892109F0C59A65DFDD0CB69992
:1006D000D394C79860DFC598C6942196C830D105D9
:1006E00079F7015010400894E11CF11CF501D192FA
:1006F0005F0101151105E9F6DF91CF911F910F916F
:10070000FF90EF90DF90CF90BF90AF909F900895B3
:10071000FC0121812F3039F4828180937B00848118
:100720008093720026C0273039F40296BF0144E05E
:1007300050E0B0DF84E008952E3039F40296BF0116
:1007400041E050E0A7DF81E0089584819581909396
:10075000700080936F008091720080937C0029303C
:1007600051F02B3041F082819381909375008093FA
:10077000740080E008958FEF08959F92AF92BF922A
:10078000CF92DF92EF92FF920F931F93DF93CF935D
:1007900000D000D0CDB7DEB79C01962E80916900C5
:1007A00090916A008032910549F4809172008093A3
:1007B0007C0010926A001092690005C00196909327
:1007C0006A00809369007901DD245E010894A11C10
:1007D000B11C4DC090916F008091700080937D009E
:1007E00090937E00F701808180937F008CE790E0FA
:1007F00067E770E044E050E04DDFF701C0802091F2
:100800006F009091700019821A821B828C2D809546
:100810008C8390937D0020937E0000E010E010C058
:100820008CE790E0B50144E050E034DF8091730044
:1008300090E025E0880F991F2A95E1F7080F191F0E
:100840008C818C1539F08091740090917500081797
:10085000190730F3D39480916F0090917000019646
:100860009093700080936F000894E11CF11CD914E0
:1008700008F4B0CF0F900F900F900F90CF91DF91B1
:100880001F910F91FF90EF90DF90CF90BF90AF90AE
:100890009F9008950F931F93CF93DF93062FEC0142
:1008A00010E01CC090916F008091700080937D00DB
:1008B00090937E008CE790E067E770E044E050E0C2
:1008C000E9DE80917A0089931F5F80916F0090919B
:1008D000700001969093700080936F00101710F3D2
:1008E000802FDF91CF911F910F91089585B783607D
:1008F00085BF8BB780648BBF8D9A969A8E9A7894B9
:1009000008951F93CF93DF9360918E00662309F4BF
:1009100061C080918F00CCE0D0E0C81BD109C057E6
:10092000DF4F81E080936B0080918D008D3209F064
:1009300043C01E818F8181111FEF8881807661F510
:100940008981882321F41882198292E02DC0853094
:1009500029F48A8180938C00959A9CC0863089F412
:1009600082E080936B008B81813021F492E1CAE3B5
:10097000D0E01AC0823009F08DC092E1CCE4D0E022
:1009800013C0883019F481E0888304C08A3009F0EC
:1009900081C0188291E008C0CE0129DE982F8F3FD8
:1009A00019F483E080936B00191708F0192FD09386
:1009B0006E00C0936D0005C0635011F0CE015BDE88
:1009C00010E010936C0083EC809381001092800003
:1009D00010928E0080918000882309F04EC02091F3
:1009E0006B00222309F449C08091810098E889278F
:1009F0008093810010916C00193010F018E002C053
:100A0000112379F1233031F482E890E0612F2DDE5B
:100A1000182F22C030916D0040916E00213061F49A
:100A2000832F942FFC01A2E8B0E081918D938E2F4B
:100A3000831B8117D0F30CC0832F942FFC01A2E8F5
:100A4000B0E0849131968D938E2F831B8117C8F36C
:100A5000F0936E00E0936D0080916C00811B809399
:100A60006C0082E890E0612F16DB1D5F1093800020
:100A70001350183010F410926B008AE002C08150BD
:100A800019F0839BFCCF08C010928C001092A60036
:100A9000959802C090E08ACFDF91CF911F91089581
:040AA000F894FFCFF8
:020AA400D25A24
:00000001FF
