:100000002CC06AC043C042C041C040C03FC03EC0D7
:100010003DC03CC03BC03AC039C038C037C036C014
:1000200035C034C033C000CDD914F13C28E5A16CF3
:1000300078B5509D894412010101FF000008811725
:100040009F0C040100000001090212000101008060
:10005000320904000000FF00000011241FBECFED94
:10006000CDBF10E0A0E6B0E0E6E1F8E002C0059008
:100070000D92A236B107D9F710E0A2E6B0E001C0B8
:100080001D92A53AB107E1F7BBD3C3C3B9CFDC01D9
:100090009FEF8FEF46E2F0E018C02D918227E82F06
:1000A000EF70E40F3591E82FE295892F932F31708F
:1000B000E327EF709295392F9F70307E8327E40FEE
:1000C000359193273170932783276A9532F780956E
:1000D00090958D939D9308950F931F932F93DF9386
:1000E000CF930FB70F938299FECF82990BC082995D
:1000F00009C0829907C0829905C0829903C000E4B3
:100100000ABFACC0C0917C00DD27C358DF4F0BE0B5
:100110001CE024E0829BE9CF3F934F936F9360B341
:1001200030E803C060B3432B499344276C70262703
:10013000215020B32C70A9F137953C3FA0F56227E0
:10014000615060B36C7037953C3F98F5262721507D
:10015000379520B32C703C3F90F56227615037955E
:100160003C3F60B36C70A0F52627215037953C3F8B
:10017000C8F520B32C706227615037953C3FB0F52D
:100180000A9560B37AF06C702627215037953C3F72
:1001900088F520B32C706227615037953C3F10F2F0
:1001A0002DC031C052C0612720B32C703F77416011
:1001B000C6CF3F77426060B36C702127C7CF3F77CF
:1001C0004460612720B32C70622761503795C8CFF7
:1001D0003F7748602127316060B36C70262721503B
:1001E0003795C6CF3F7740616127C1CF3F774062E7
:1001F0002127C4CF3F7740646127C9CF3F7740684C
:10020000212700C08FCF30E43ABF0B500195C01BAF
:10021000D040288121FD2DC019811F774091930086
:10022000141799F4293691F400916D000023F1F030
:1002300040917B004423D1F440936D0040917900BC
:1002400040939300CEE6D0E02BC02227209362009B
:100250006F914F913F910AB706FD45CF0F910FBFA8
:10026000CF91DF912F911F910F911895C1E6D0E0AA
:1002700016C0217059F320916200222339F3409176
:100280007B00442399F700937B0020937A00009130
:100290007C004BE0401B40937C00C0E6D0E001E0D6
:1002A00022B3237F286011B31C6022BB11BB1CE06A
:1002B00030E830FF212722BB379547954C3FC0F5EA
:1002C00030FF2127379522BB47954C3FA8F530FFDB
:1002D00021273795000022BB47954C3F78F530FF2A
:1002E00021273795000022BB47954C3F48F530FF4A
:1002F0002127699122BB379547954C3F18F530FF70
:100300002127379522BB47954C3F00F530FF212729
:100310003795479522BB4C3FD8F430FF21273795BE
:10032000362F479522BB4C3FA8F40A9512F614C00D
:100330002127442722BBC2CF2127C5CF2127CBCFDE
:100340002127D1CF2127442722BBD7CF2127DACF9E
:100350002127DFCF2127E5CF237F22BB6F914F914C
:100360003F9100E40ABFDF91CF9111B3022F2860C3
:1003700022BB137FDFBFDF912F91000011BB02BBB7
:100380001F910F91189585B7836085BF8BB78064E7
:100390008BBF8D9A969A8E9A789408951F93CF93D7
:1003A000DF9360917B00662309F461C080917C003B
:1003B000CCE0D0E0C81BD109C358DF4F81E0809367
:1003C000630080917A008D3209F043C01E818F81D5
:1003D00081111FEF8881807661F58981882321F45E
:1003E0001882198292E02DC0853029F48A81809389
:1003F0007900959A9CC0863089F482E080936300EE
:100400008B81813021F492E1C6E3D0E01AC08230C2
:1004100009F08DC092E1C8E4D0E013C0883019F42F
:1004200081E0888304C08A3009F081C0188291E09D
:1004300008C0CE019BD1982F8F3F19F483E08093A1
:100440006300191708F0192FD0936600C093650058
:1004500005C0635011F0CE01CDD110E010936400BF
:1004600083EC80936E0010926D0010927B0080915F
:100470006D00882309F04EC020916300222309F407
:1004800049C080916E0098E8892780936E00109192
:100490006400193010F018E002C0112379F1233004
:1004A00031F48FE690E0612F9FD1182F22C0309158
:1004B000650040916600213061F4832F942FFC0188
:1004C000AFE6B0E081918D938E2F831B8117D0F31F
:1004D0000CC0832F942FFC01AFE6B0E084913196DD
:1004E0008D938E2F831B8117C8F3F0936600E093E2
:1004F000650080916400811B809364008FE690E02A
:10050000612FC5DD1D5F10936D001350183010F47E
:10051000109263008AE002C0815019F0839BFCCFE7
:1005200008C01092790010929300959802C090E054
:100530008ACFDF91CF911F91089580919800082E66
:1005400000C000000A94E1F708959F92AF92BF9215
:10055000CF92DF92EF92FF920F931F93CF93DF938F
:100560007C015B018A0120C0F701908080E8C82EE1
:10057000DD24C0E0D0E0C79A8C2D892109F0C59A0E
:10058000DCDFDD0CB699D394C798D7DFC598C69445
:100590002196C830D10579F7015010400894E11C2C
:1005A000F11CF501D1925F0101151105E9F6DF910A
:1005B000CF911F910F91FF90EF90DF90CF90BF9060
:1005C000AF909F900895FC018181803141F4828138
:1005D0008093A00084818093970080E00895873005
:1005E00041F4CF010296BF0144E050E0AEDF84E069
:1005F00008958E3041F4CF010296BF0141E050E0F2
:10060000A4DF81E008958481958190939500809383
:1006100094008281938190939A008093990080E066
:1006200008959F92AF92BF92CF92DF92EF92FF9286
:100630000F931F93DF93CF9300D000D0CDB7DEB7D9
:10064000962E7C01DD245E010894A11CB11C4DC0D6
:100650002091940030919500832F99278093A200D8
:100660002093A300F70180818093A40081EA90E0A9
:100670006CE970E044E050E068DFF701C0809091E1
:10068000940019821A821B828C2D80958C83109283
:10069000A2009093A30000E010E010C081EA90E077
:1006A000B50144E050E051DF8091980090E025E0F2
:1006B000880F991F2A95E1F7080F191F8C818C1557
:1006C00039F08091990090919A000817190730F33A
:1006D000D394809194009091950001969093950009
:1006E000809394000894E11CF11CD91408F4B0CF55
:1006F0000F900F900F900F90CF91DF911F910F915E
:10070000FF90EF90DF90CF90BF90AF909F900895B3
:100710000F931F93CF93DF93062FEC0110E01EC0C1
:100720002091940030919500832F99278093A20007
:100730002093A30081EA90E06CE970E044E050E08F
:1007400004DF80919F0089931F5F809194009091B6
:10075000950001969093950080939400101700F3F4
:10076000802FDF91CF911F910F910895DC01119699
:100770008C911197853089F412968C911297809301
:10078000980014968C91882311F091E101C091E0BA
:10079000949881EB87BB98BB0CC0863021F417BAC4
:1007A00018BA949A18C08F30C1F412968C91813087
:1007B00091F488E893E090936A008093690081E166
:1007C00093E0909368008093670083EE92E09093AB
:1007D0006C0080936B0080E00895E0916B00F091D5
:1007E0006C00CD0109950895E0916900F0916A00CF
:1007F00009950895E0916700F091680009950895C2
:1008000080E781BB94988C9ABEDD80E582BBC6DD13
:06081000FECFF894FFCFBB
:02081600D25AB4
:00000001FF
