:100000002CC06AC043C042C041C040C03FC03EC0D7
:100010003DC03CC03BC03AC039C038C037C036C014
:1000200035C034C033C000CDD914F13C28E5A16CF3
:1000300078B5509D894412010101FF000008811725
:100040009F0C040100000001090212000101008060
:10005000320904000000FF00000011241FBECFED94
:10006000CDBF10E0A0E6B0E0EAEEF7E002C00590F8
:100070000D92A236B107D9F710E0A2E6B0E001C0B8
:100080001D92A53AB107E1F7A5D3ADC3B9CFDC0105
:100090009FEF8FEF46E2F0E018C02D918227E82F06
:1000A000EF70E40F3591E82FE295892F932F31708F
:1000B000E327EF709295392F9F70307E8327E40FEE
:1000C000359193273170932783276A9532F780956E
:1000D00090958D939D9308950F931F932F93DF9386
:1000E000CF930FB70F938299FECF82990BC082995D
:1000F00009C0829907C0829905C0829903C000E4B3
:100100000ABFACC0C0917C00DD27C358DF4F0BE0B5
:100110001CE024E0829BE9CF3F934F936F9360B341
:1001200030E803C060B3432B499344276C70262703
:10013000215020B32C70A9F137953C3FA0F56227E0
:10014000615060B36C7037953C3F98F5262721507D
:10015000379520B32C703C3F90F56227615037955E
:100160003C3F60B36C70A0F52627215037953C3F8B
:10017000C8F520B32C706227615037953C3FB0F52D
:100180000A9560B37AF06C702627215037953C3F72
:1001900088F520B32C706227615037953C3F10F2F0
:1001A0002DC031C052C0612720B32C703F77416011
:1001B000C6CF3F77426060B36C702127C7CF3F77CF
:1001C0004460612720B32C70622761503795C8CFF7
:1001D0003F7748602127316060B36C70262721503B
:1001E0003795C6CF3F7740616127C1CF3F774062E7
:1001F0002127C4CF3F7740646127C9CF3F7740684C
:10020000212700C08FCF30E43ABF0B500195C01BAF
:10021000D040288121FD2DC019811F774091930086
:10022000141799F4293691F400916D000023F1F030
:1002300040917B004423D1F440936D0040917900BC
:1002400040939300CEE6D0E02BC02227209362009B
:100250006F914F913F910AB706FD45CF0F910FBFA8
:10026000CF91DF912F911F910F911895C1E6D0E0AA
:1002700016C0217059F320916200222339F3409176
:100280007B00442399F700937B0020937A00009130
:100290007C004BE0401B40937C00C0E6D0E001E0D6
:1002A00022B3237F286011B31C6022BB11BB1CE06A
:1002B00030E830FF212722BB379547954C3FC0F5EA
:1002C00030FF2127379522BB47954C3FA8F530FFDB
:1002D00021273795000022BB47954C3F78F530FF2A
:1002E00021273795000022BB47954C3F48F530FF4A
:1002F0002127699122BB379547954C3F18F530FF70
:100300002127379522BB47954C3F00F530FF212729
:100310003795479522BB4C3FD8F430FF21273795BE
:10032000362F479522BB4C3FA8F40A9512F614C00D
:100330002127442722BBC2CF2127C5CF2127CBCFDE
:100340002127D1CF2127442722BBD7CF2127DACF9E
:100350002127DFCF2127E5CF237F22BB6F914F914C
:100360003F9100E40ABFDF91CF9111B3022F2860C3
:1003700022BB137FDFBFDF912F91000011BB02BBB7
:100380001F910F91189585B7836085BF8BB78064E7
:100390008BBF8D9A969A8E9A789408951F93CF93D7
:1003A000DF9360917B00662309F461C080917C003B
:1003B000CCE0D0E0C81BD109C358DF4F81E0809367
:1003C000630080917A008D3209F043C01E818F81D5
:1003D00081111FEF8881807661F58981882321F45E
:1003E0001882198292E02DC0853029F48A81809389
:1003F0007900959A98C0863089F482E080936300F2
:100400008B81813021F492E1C6E3D0E01AC08230C2
:1004100009F089C092E1C8E4D0E013C0883019F433
:1004200081E0888304C08A3009F07DC0188291E0A1
:1004300008C0CE0189D1982F8F3F19F483E08093B3
:100440006300191708F0192FD0936600C093650058
:1004500005C0635011F0CE01B7D110E010936400D5
:1004600083EC80936E0010926D0010927B0080915F
:100470006D00882309F04AC040916300442309F4C9
:1004800045C080916E0098E8892780936E00109196
:100490006400193010F018E002C0112359F1433004
:1004A00031F48FE690E0612F89D1182F1EC0209182
:1004B000650030916600413051F4F901AFE6B0E0DB
:1004C00081918D938E2F821B8117D0F30AC0F90181
:1004D000AFE6B0E0849131968D938E2F821B811709
:1004E000C8F3F0936600E093650080916400811B7F
:1004F000809364008FE690E0612FC9DD1D5F10934B
:100500006D001350183010F4109263008AE002C09E
:10051000815019F0839BFCCF08C010927900109293
:100520009300959802C090E08ECFDF91CF911F91FC
:10053000089580919800082E00C000000A94E1F709
:100540000895AF92BF92CF92DF92EF92FF920F93F6
:100550001F93CF93DF938C015B01D42E1EC0F80153
:10056000C080FF2480E8E82EC0E0D0E08E2D8C21F2
:1005700009F0C59ADEDFC79ADCDFFF0CB699F39469
:10058000C598C798E6942196C830D10579F7DA94D2
:100590000F5F1F4FF501F1925F01DD2001F7DF9141
:1005A000CF911F910F91FF90EF90DF90CF90BF9070
:1005B000AF9008951F93CF93DF93EC01198117300B
:1005C00031F40296BE0144E0BCDF24E011C01E30CD
:1005D00031F40296BE0141E0B4DF21E009C01830D9
:1005E00031F48A8180939B008B818093960020E078
:1005F0008C819D819093950080939400193011F423
:1006000080E203C01B3021F480EA809397002FEF33
:100610008A819B8190939A00809399001A3011F4FB
:1006200080E403C01C3019F480EC80939700822F83
:10063000DF91CF911F910895209194003091950002
:100640002F5F3F4F3093950020939400215030400E
:100650008091970087FF02C0220F331F8093A10073
:1006600020FF03C088608093A100832F869580932C
:10067000A200369527952093A30081EA90E06CE9CB
:1006800070E044E05ECF0F931F93CF93DF93062F6C
:10069000EC0110E005C0D0DF80919F0089931F5FBF
:1006A0001017C8F3802FDF91CF911F910F910895FC
:1006B000DF92EF92FF920F931F93CF93DF93E62E7B
:1006C0008C01FF2460E6D62E35C0F801808180932E
:1006D000A400B2DF8091A1008D258093A100C0E02D
:1006E000D0E01EC081EA90E06CE970E044E029DFD0
:1006F00090919F008091A400981741F480919B00F5
:10070000981721F080919600981789F480919800AD
:1007100090E055E0880F991F5A95E1F7C80FD91F4F
:100720008091990090919A00C817D907D8F2F39454
:100730000F5F1F4FFE1448F2DF91CF911F910F9171
:10074000FF90EF90DF900895DC0111968C91119746
:10075000853019F512968C91129780939800149613
:100760008C91882311F091E101C091E0949881EB84
:1007700087BB98BB83E493E090936A008093690001
:1007800088E593E090936800809367008AED92E09B
:1007900090936C0080936B0008C0863021F417BAE8
:1007A00018BA949A02C08F3011F480E00895E09155
:1007B0006B00F0916C00CD0109950895E0916900FE
:1007C000F0916A0009950895E0916700F091680042
:1007D0000995089580E781BB94988C9AD4DD80E5D3
:0A07E00082BBDCDDFECFF894FFCFF2
:0207EA00D25AE1
:00000001FF
