:200000002CC066C043C042C041C040C03FC03EC03DC03CC03BC03AC039C038C037C036C0FF
:2000200035C034C033C000CDD914F13C28E5A16C78B5509D894412010101FF000008811748
:200040009F0C0401000000010902120001010080320904000000FF00000011241FBECFED44
:20006000CDBF10E0A0E6B0E0EEEFF7E002C005900D92A236B107D9F710E0A2E6B0E001C01B
:200080001D92A03AB107E1F7B1D3B8C3B9CFDC019FEF8FEF660FB9F046E2F0E0229560FFAB
:2000A0002D91E82FE227EF70929582958F70392F307F832B9F70E40F359193273170932724
:2000C00083276A9559F7809590958D939D9308950F931F932F93DF93CF930FB70F93829993
:2000E000FECF82990BC0829909C0829907C0829905C0829903C000E40ABFA8C0C0918800DB
:20010000DD27C757DF4F0BE01CE024E0829BE9CF3F934F936F9360B330E803C060B3432BAA
:20012000499344276C702627215020B32C70A9F137953C3FA0F56227615060B36C70379504
:200140003C3F98F526272150379520B32C703C3F90F56227615037953C3F60B36C70A0F599
:200160002627215037953C3FC8F520B32C706227615037953C3FB0F50A9560B37AF06C7030
:200180002627215037953C3F88F520B32C706227615037953C3F10F22DC031C048C061277D
:2001A00020B32C703F774160C6CF3F77426060B36C702127C7CF3F774460612720B32C706E
:2001C000622761503795C8CF3F7748602127316060B36C70262721503795C6CF3F774061E6
:2001E0006127C1CF3F7740622127C4CF3F7740646127C9CF3F774068212700C08FCF30E462
:200200003ABF0B500195033090F0C01B2881233C91F12B3481F119811F7740919F00141740
:2002200031F42936D9F02D3249F0213E39F04427409362006F914F913F9108C02093620024
:200240006F914F913F910AB706FD49CF0F910FBFCF91DF912F911F910F91189500917A000C
:200260000023F1F0409187004423D1F440937A00CBE7D0E018C0209162002223C1F2409193
:200280008700442369F40093870020938600009188004BE0401B40938800C0E6D0E002C0AE
:2002A000C1E6D0E001E022B3237F286011B31C6022BB11BB1CE030E830FF212722BB3795EA
:2002C00047954C3FC0F530FF2127379522BB47954C3FA8F530FF21273795000022BB4795E2
:2002E0004C3F78F530FF21273795000022BB47954C3F48F530FF2127699122BB379547954C
:200300004C3F18F530FF2127379522BB47954C3F00F530FF21273795479522BB4C3FD8F476
:2003200030FF21273795362F479522BB4C3FA8F40A9512F614C02127442722BBC2CF212751
:20034000C5CF2127CBCF2127D1CF2127442722BBD7CF2127DACF2127DFCF2127E5CF237F84
:2003600022BB6F914F913F9100E40ABFDF91CF9111B3022F286022BB137FDFBFDF912F91B9
:20038000000011BB02BB1F910F91189585B7836085BF8BB780648BBF789408951F93CF9347
:2003A000DF9360918700662309F460C0809188009927CC27DD27C81BD90BCB56DF4F91E0D6
:2003C00090936300809186008D3209F041C01E818F8181111FEF8881807651F589818823FE
:2003E00021F41882198292E02BC0853021F48A818093670099C0863089F482E080936300A3
:200400008B81813019F4C6E3D0E006C0823009F08BC0959AC8E4D0E092E112C0883011F470
:20042000988304C08A3009F07FC0188291E008C0CE01EED0982F8F3F19F483E08093630010
:20044000191708F4912FD0936600C093650005C0635011F0CE015ED190E09093640083EC52
:2004600080937B0010927A001092870080917A00882309F04FC040916300442309F446C0CD
:2004800080917B0098E8892780937B0010916400193010F018E002C0112359F1433031F4F4
:2004A000612F8CE790E016D1182F1EC02091650030916600413051F4F901ACE7B0E081919B
:2004C0008D938E2F821B811758F4F9CFF901ACE7B0E0849131968D938E2F821B8117C8F330
:2004E000F0936600E093650080916400811B80936400612F8CE790E0CADD1D5F10937A0000
:200500001350183038F41092630004C08091670080939F008AE002C0815019F0839BFCCF22
:2005200005C01092670002C090E08DCFDF91CF911F9108951F93FC01DB0180917700282FD8
:200540003327277030702330310519F09091680026C031961196FACF21503040108160E020
:2005600070E840E050E0872F812309F0C59A092E00C000000A94E1F7C79A092E00C000005C
:200580000A94E1F7660FB6996F5FC798C59876954F5F5F4F4830510531F731966D9321153D
:2005A0003105D1F61F91089560916B0070916C00E82FFF27E858FF4FE081E0936F00809109
:2005C0007700282F3327287330702115310551F4E7FD08C060FF04C08E2F886080936F0011
:2005E00076956795872F9927482F80937000609371002031310531F4440F440F440F4E2B02
:200600004093700063E770E08FE690E093DF0895FC012181253089F4828180936800848115
:20062000882311F091E101C091E084E080937700949881EB87BB98BB05C0263029F417BA46
:2006400018BA949A90E043C02F3051F4828180937700848180937800858180937900F2CF13
:20066000273029F4BC01029665DF94E030C0283039F4828180936900838180936A00E2CFD3
:200680008481958190936C0080936B00293011F420E203C02B3019F420EA9FEF0EC082813E
:2006A000938190936E0080936D002A3011F420E403C02C3009F420EC90E080917700887397
:2006C00031F42093780080E6282720937900892F992708950F931F93CF93DF93062FEC018A
:2006E00010E00FC080E060DF80917600899380916B0090916C00019690936C0080936B004C
:200700001F5F101779F7802F9927DF91CF911F910F9108956F927F928F929F92AF92BF92A2
:20072000CF92DF92EF92FF920F931F93CF93DF93862E20917700C22EDD2428E3C222DD24F0
:2007400060906D0070906E0020916800E22EFF2425E0EE0CFF1C2A95E1F7A0906900B090F8
:200760006A008C0199242DC0F80180818093720080E01ADFC114D10421F0B0907200B0944F
:20078000AB2CC0E0D0E00EC081E00EDF9091760080917200981721F49A1511F09B1529F4BB
:2007A000CE0DDF1DC615D70578F380916B0090916C00019690936C0080936B0093940F5FFE
:2007C0001F4F981489F6A0926900B0926A00DF91CF911F910F91FF90EF90DF90CF90BF90EE
:2007E000AF909F908F907F906F900895949A80E781BBCCDD80E582BBD1DDFECFFFCFD25A30
:00000001FF
