:1000000039C073C050C0B8C20AC34DC04CC04BC049
:100010004AC049C048C047C046C045C044C043C0AC
:1000200042C041C040C000CDD914F13C28E5A16CCC
:1000300078B5509D89440E03490052002F004C00B2
:100040004300440012010101FF000008EB0302001D
:1000500003010002000109021900010100802809C2
:1000600004000001FF0000000705810008000004F3
:100070000309040011241FBECFEDCDBF10E0A0E6A0
:10008000B0E0E8EEF7E002C005900D92A436B107AB
:10009000D9F710E0A4E6B0E001C01D92A93BB1077A
:1000A000E1F76CD39FC3ACCFDC019FEF8FEF660FFE
:1000B000B9F046E2F0E0229560FF2D91E82FE227AB
:1000C000EF70929582958F70392F307F832B9F70C0
:1000D000E40F359193273170932783276A9559F759
:1000E000809590958D939D9308950F931F932F93D3
:1000F000DF93CF930FB70F938299FECF82990BC0F6
:10010000829909C0829907C0829905C0829903C06B
:1001100000E40ABFA8C0C091A100DD27CE55DF4F83
:100120000BE014E124E0829BE9CF3F934F936F9360
:1001300060B330E803C060B3432B49934427647134
:100140002627215020B32471A9F137953C3FA0F513
:100150006227615060B3647137953C3F98F526275C
:100160002150379520B324713C3F90F562276150B0
:1001700037953C3F60B36471A0F526272150379531
:100180003C3FC8F520B324716227615037953C3F4E
:10019000B0F50A9560B37AF064712627215037953F
:1001A0003C3F88F520B324716227615037953C3F6E
:1001B00010F22DC031C048C0612720B324713F77B1
:1001C0004160C6CF3F77426060B364712127C7CFDB
:1001D0003F774460612720B32471622761503795CF
:1001E000C8CF3F7748602127316060B3647126270C
:1001F00021503795C6CF3F7740616127C1CF3F7708
:1002000040622127C4CF3F7740646127C9CF3F7741
:100210004068212700C08FCF30E43ABF0B500195D2
:10022000033090F0C01B2881233C91F12B3481F1E5
:1002300019811F774091B800141731F42936D9F08D
:100240002D3249F0213E39F04427409364006F91EC
:100250004F913F9108C0209364006F914F913F915F
:100260000AB706FD49CF0F910FBFCF91DF912F91B4
:100270001F910F911895009193000023F1F0409188
:10028000A0004423D1F440939300C4E9D0E018C007
:10029000209164002223C1F24091A000442369F41C
:1002A0000093A00020939F000091A1004BE0401B11
:1002B0004093A100C0E6D0E002C0C1E6D0E001E07A
:1002C00022B32B7E206111B3146122BB11BB14E158
:1002D00030E830FF212722BB379547954C3FC0F5CA
:1002E00030FF2127379522BB47954C3FA8F530FFBB
:1002F00021273795000022BB47954C3F78F530FF0A
:1003000021273795000022BB47954C3F48F530FF29
:100310002127699122BB379547954C3F18F530FF4F
:100320002127379522BB47954C3F00F530FF212709
:100330003795479522BB4C3FD8F430FF212737959E
:10034000362F479522BB4C3FA8F40A9512F614C0ED
:100350002127442722BBC2CF2127C5CF2127CBCFBE
:100360002127D1CF2127442722BBD7CF2127DACF7E
:100370002127DFCF2127E5CF2B7E22BB6F914F9125
:100380003F9100E40ABFDF91CF9111B3022F2061AA
:1003900022BB1B7EDFBFDF912F91000011BB02BB90
:1003A0001F910F91189585B7836085BF8BB78064C7
:1003B0008BBF789408951F93CF93DF936091A00033
:1003C000662309F471C08091A100CCE0D0E0C81B85
:1003D000D109CE55DF4F81E08093650080919F0069
:1003E0008D3209F053C01E818F8181111FEF8881EA
:1003F0008076E1F58981882321F41882198292E0C0
:100400003DC0853021F48A8180936900AFC0863079
:1004100011F582E0809365008B81813021F492E1B7
:10042000C4E4D0E02BC0823029F4959A99E1C6E566
:10043000D0E024C0833009F099C08A81882321F458
:1004400094E0CFE6D0E01AC0823009F08FC09EE081
:10045000C6E3D0E013C0883019F481E0888304C07B
:100460008A3009F083C0188291E008C0CE011FD104
:10047000982F8F3F19F483E080936500191708F0D7
:10048000192FD0936800C093670005C0635011F026
:10049000CE0165D110E01093660083EC8093940048
:1004A000109293001092A00080919300882309F08D
:1004B00053C020916500222309F44AC08091940022
:1004C00098E889278093940010916600193010F005
:1004D00018E002C0112379F1233031F4612F85E94E
:1004E00090E00ED1182F22C0309167004091680033
:1004F000213061F4832F942FFC01A5E9B0E08191B4
:100500008D938E2F831B8117D0F30CC0832F942FD4
:10051000FC01A5E9B0E0849131968D938E2F831B69
:100520008117C8F3F0936800E0936700809166003C
:10053000811B80936600612F85E990E0B5DD1D5F2A
:10054000109393001350183038F41092650004C0D3
:10055000809169008093B8008AE002C0815019F050
:10056000849BFCCF05C01092690002C090E088CF48
:10057000DF91CF911F9108957F937FB72F933F9382
:100580008F939F9344B555B519BE8EB590E48927D6
:100590008EBD7894959A4F935F93EF93FF93CA0122
:1005A000805C9F4F20916A0030916B00821B930BFF
:1005B000880F892F881F990B9195982F50936B0066
:1005C00040936A004A57524C5BBD4ABDF894209153
:1005D0006C002F3F99F0243208F020518091620086
:1005E0008F3F49F410926D00222329F0E22FF0E0B2
:1005F000E359FF4F92832F5F20936C0078940000A3
:10060000FF91EF915F914F91F89488E489BF9F919A
:100610008F913F912F917FBF7F911895089519BEBB
:1006200078949598F89490916C00892F84508B3F22
:1006300060F4809162008F3F41F480916E008F5F83
:1006400080936E00915090936D0010926C0078949E
:100650008EB58F7B8EBDF89488E489BF0895382FBE
:1006600020E288B328BBC69A00C096B388BB88B383
:1006700028BBC69A00C046B388BB9F7093FDF1CFDC
:1006800088B3932F92959F70807F982B98BBC69AC2
:100690002FE727BBC69890E797BB88B33F70807F52
:1006A000832B88BBC69A27BBC69897BB0895FC01CD
:1006B0008181882319F1813031F410926D008FEF20
:1006C0008093620016C0823071F4F89480916D00BE
:1006D000882329F08481809362008FEF02C010820A
:1006E00081E078940895843111F4C49802C0853172
:1006F00011F080E00895C49A80E0089588E008959C
:10070000CF93DF93EC0150916D005D5F40916200EB
:1007100020E030E01BC0451768F0F89480916C0031
:10072000882319F08FEF80936C008FEF8093620025
:10073000789411C0FE01E20FF31FA42FB0E0A3597B
:10074000BF4F8C9180832F5F3F4F4F5F922F2617B3
:1007500010F340936200892FDF91CF9108951F938A
:10076000CF93DF93EC01162F03C0899178DF1150EE
:100770001123D9F7DF91CF911F910895939A8B9A06
:1007800090E797BB18BA88B3807F836088BBC69A0E
:100790002FE727BBC69897BB90EF00C09A95E9F763
:1007A0008A95D1F788B3807F836088BBC69A27BBC0
:1007B000C69897BB90EF00C09A95E9F78A95D1F754
:1007C00082E34DDF88E24BDF81E049DF86E047DFEF
:1007D0008CE045DFE8DD8D9A82E88EBD88E489BF34
:0807E000EADDFECFF894FFCF23
:0407E800D25AFF00E2
:00000001FF
