:100000002EC049C047C046C045C044C043C042C0DE
:1000100041C040C03FC03EC03DC03CC03BC03AC0F4
:1000200039C038C037C036C035C012010101FF00E9
:10003000000881179F0C0401000000010902120052
:1000400001010080320904000000FF00000000CD23
:10005000D914F13C28E5A16C78B5509D8944112450
:100060001FBECFE5D1E0DEBFCDBF10E0A0E6B0E01F
:10007000E2E3FDE002C005900D92A83AB107D9F77E
:1000800011E0A8EAB0E001C01D92A730B107E1F786
:10009000B8D14DC6B5CF0F931F932F93DF93CF9356
:1000A0000FB70F938299FECF82990BC0829909C036
:1000B000829907C0829905C0829903C000E40ABFF3
:1000C000A8C0C091EF00DD27C051DF4F0BE01CE05E
:1000D00024E0829BE9CF3F934F936F9360B330E866
:1000E00003C060B3432B499344276C7026272150EB
:1000F00020B32C70A9F137953C3FA0F562276150E1
:1001000060B36C7037953C3F98F5262721503795A2
:1001100020B32C703C3F90F56227615037953C3FEF
:1001200060B36C70A0F52627215037953C3FC8F589
:1001300020B32C706227615037953C3FB0F50A958B
:1001400060B37AF06C702627215037953C3F88F5D4
:1001500020B32C706227615037953C3F10F22DC0C0
:1001600031C048C0612720B32C703F774160C6CFB3
:100170003F77426060B36C702127C7CF3F77446000
:10018000612720B32C70622761503795C8CF3F7725
:1001900048602127316060B36C7026272150379565
:1001A000C6CF3F7740616127C1CF3F7740622127AB
:1001B000C4CF3F7740646127C9CF3F77406821278C
:1001C00000C08FCF30E43ABF0B500195033090F060
:1001D000C01B2881233C91F12B3481F119811F77B9
:1001E00040910601141731F42936D9F02D3249F027
:1001F000213E39F044274093A8006F914F913F91E1
:1002000008C02093A8006F914F913F910AB706FD57
:1002100049CF0F910FBFCF91DF912F911F910F9178
:1002200018950091E1000023F1F04091EE00442385
:10023000D1F44093E100C2EED0E018C02091A800B4
:100240002223C1F24091EE00442369F40093EE00B2
:100250002093ED000091EF004BE0401B4093EF0036
:10026000C0E6D0E002C0C1E6D0E001E022B3237FC7
:10027000286011B31C6022BB11BB1CE030E830FFCA
:10028000212722BB379547954C3FC0F530FF2127EA
:10029000379522BB47954C3FA8F530FF212737956E
:1002A000000022BB47954C3F78F530FF212737955A
:1002B000000022BB47954C3F48F530FF212769914C
:1002C00022BB379547954C3F18F530FF21273795CE
:1002D00022BB47954C3F00F530FF212737954795C6
:1002E00022BB4C3FD8F430FF21273795362F479556
:1002F00022BB4C3FA8F40A9512F614C021274427CC
:1003000022BBC2CF2127C5CF2127CBCF2127D1CFD9
:100310002127442722BBD7CF2127DACF2127DFCFC0
:100320002127E5CF237F22BB6F914F913F9100E4BE
:100330000ABFDF91CF9111B3022F286022BB137F38
:10034000DFBFDF912F91000011BB02BB1F910F9106
:100350001895DF93CF93CDB7DEB78091A900082E13
:1003600000C000000A94E1F7CF91DF910895DF9378
:10037000CF9300D000D000D0CDB7DEB79A83898369
:100380007C836B835E834D8326960FB6F894DEBF25
:100390000FBECDBFCF91DF910895DF93CF93CDB73F
:1003A000DEB7CF91DF910895DF93CF9300D00F9206
:1003B000CDB7DEB79A8389830F900F900F90CF91BE
:1003C000DF910895DF93CF9300D000D0CDB7DEB793
:1003D0009A8389836B830F900F900F900F90CF912A
:1003E000DF910895DF93CF9300D00F92CDB7DEB7A2
:1003F0009A8389836B830F900F900F90CF91DF9139
:100400000895A2E3B0E0E2E3F0E0808180618C93A4
:10041000E1E3F0E080E78083E2E3F0E080E58083E1
:10042000E2D3FFCFDF93CF9300D000D000D0CDB781
:10043000DEB79D838C836E8326960FB6F894DEBF5D
:100440000FBECDBFCF91DF910895DF93CF93CDB78E
:10045000DEB72A970FB6F894DEBF0FBECDBF9091DE
:10046000E20088E889278093E2008091BB008A87B8
:100470008A85893010F088E08A8783EE90E09F8338
:100480008E838A85882309F45BC08091BA0083300B
:1004900031F48E819F816A8595DF8A874BC0809178
:1004A000BC009091BD00998788878091BA00813007
:1004B000D1F41D8213C0E885F9858081EE81FF812A
:1004C00080838E819F8101969F838E838885998505
:1004D0000196998788878D818F5F8D839D818A851D
:1004E000981748F321C01D821BC0888599859B837E
:1004F0008A83EA81FB818491898389818C838885C1
:100500009985019699878887EE81FF818C81808308
:100510008E819F8101969F838E838D818F5F8D83D6
:100520009D818A85981708F3888599859093BD00E9
:100530008093BC008091BB009A85891B8093BB008F
:1005400083EE90E06A859BD08A858D5F8093E10081
:100550008A85883010F41092BA002A960FB6F89463
:10056000DEBF0FBECDBFCF91DF910895DF93CF9354
:10057000CDB7DEB7A5E5B0E0E5E5F0E080818360CA
:100580008C93ABE5B0E0EBE5F0E0808180648C9388
:100590007894CF91DF910895DF93CF930F92CDB7E9
:1005A000DEB78091EE008823B1F08091EF00282F14
:1005B00030E08CE090E0821B930B9C0120513F4F78
:1005C0008091EE00482F4350C901642F2BDF109219
:1005D000E1001092EE008091E100882351F48091B7
:1005E000BA00882311F031DF04C08091BE008093EF
:1005F00006018AE0898303C08981815089838981CA
:10060000882349F0E0E3F0E08081882F90E0887053
:100610009070009789F38981882311F41092BE00AD
:100620000F90CF91DF910895DF93CF93CDB7DEB7D1
:100630008091BF00082E00C000000A94E1F7CF911E
:10064000DF910895DF93CF9300D000D000D0CDB7D5
:10065000DEB79A8389837C836B835E834D83269682
:100660000FB6F894DEBF0FBECDBFCF91DF910895D6
:10067000DF93CF93CDB7DEB7CF91DF910895DC0143
:100680009FEF8FEF660FB9F04EE4F0E0229560FF28
:100690002D91E82FE227EF70929582958F70392F78
:1006A000307F832B9F70E40F359193273170932710
:1006B00083276A9559F7809590958D939D9308951A
:1006C000DF93CF93CDB7DEB78091D000082E00C066
:1006D00000000A94E1F7CF91DF910895DF93CF9363
:1006E00000D000D000D0CDB7DEB79A8389837C8359
:1006F0006B835E834D8326960FB6F894DEBF0FBEE4
:10070000CDBFCF91DF910895DF93CF93CDB7DEB703
:10071000CF91DF910895DF93CF9300D000D0CDB774
:10072000DEB78091D000282F30E084E690E0B90158
:100730009AD2CB019A8389831C821B8206C0C0DFB8
:100740008B819C8101969C838B832B813C81898149
:100750009A812817390798F30F900F900F900F90F8
:10076000CF91DF910895DF93CF9300D000D0CDB724
:10077000DEB78091D000282F30E040E050E080E6E6
:100780009AEEA0E0B0E0BC01CD0180D2DA01C9014F
:100790009A8389831C821B8206C092DF8B819C8195
:1007A00001969C838B832B813C8189819A812817B8
:1007B000390798F30F900F900F900F90CF91DF9122
:1007C0000895DF93CF9300D000D0CDB7DEB785E09A
:1007D00090E09A8389831C821B8206C0C4DF8B81D0
:1007E0009C8101969C838B832B813C8189819A819A
:1007F0002817390798F30F900F900F900F90CF9113
:10080000DF910895DF93CF9300D000D0CDB7DEB74E
:100810008C83198280E88B8338C08C819B818923EB
:10082000882341F0A8E3B0E0E8E3F0E08081806253
:100830008C9307C0A8E3B0E0E8E3F0E080818F7D0F
:100840008C933EDFA8E3B0E0E8E3F0E080818068CD
:100850008C9336DF8981880F8983E6E3F0E080811D
:10086000882F90E080749070009719F089818F5FD5
:10087000898326DFA8E3B0E0E8E3F0E080818F77AA
:100880008C931EDF8B8186958B838B81882329F641
:1008900089810F900F900F900F90CF91DF91089565
:1008A000DF93CF93CDB7DEB729970FB6F894DEBFAD
:1008B0000FBECDBF9D838C837F836E83598748870E
:1008C0001BC088859985019799878887EC81FD8170
:1008D00080818B838C819D8101969D838C831A827C
:1008E0008B8190DF8A83EE81FF818A8180838E8174
:1008F0009F8101969F838E8388859985009709F74C
:1009000029960FB6F894DEBF0FBECDBFCF91DF9111
:100910000895DF93CF9300D00F92CDB7DEB79A83BF
:10092000898389819A81FC0133968081893611F00F
:100930001B8202C081E08B838B810F900F900F9000
:10094000CF91DF910895DF93CF9300D000D000D0F6
:10095000CDB7DEB71A821B821C821D8219820CC0A1
:100960008EE690E09E012E5F3F4FB90144E050E0DB
:1009700097DF89818F5F89838D818F3F19F089810E
:100980008E3170F389818E3111F41E8202C081E0B4
:100990008E838E8126960FB6F894DEBF0FBECDBF34
:1009A000CF91DF910895DF93CF93CDB7DEB727972F
:1009B0000FB6F894DEBF0FBECDBF8D836E834F831D
:1009C0008D81809519821A821B828C838E818093FF
:1009D00070000AC08F81482F50E08EE690E09E01A3
:1009E0002F5F3F4FB9015CDF9C818D81981791F794
:1009F00027960FB6F894DEBF0FBECDBFCF91DF9123
:100A00000895DF93CF93CDB7DEB727970FB6F8944D
:100A1000DEBF0FBECDBF1B828DE289831A8220C04C
:100A20008B8180936C008A81882F90E0FC01E658CE
:100A3000FF4F808180936D008AE690E09E012C5FDD
:100A40003F4FB90144E050E02BDF80916D006B8196
:100A500044E0A9DF8A818F5F8A838B818F5F8B83DC
:100A60009A8189819817E0F227960FB6F894DEBF35
:100A70000FBECDBFCF91DF910895DF93CF93CDB758
:100A8000DEB729970FB6F894DEBF0FBECDBF1D822B
:100A90008DE2898380917200B5DE80917300B2DEB1
:100AA000809173008A831C820FC08C81882F90E014
:100AB000FC01E658FF4F8081A5DE8B838C818F5F20
:100AC0008C838D818F5F8D839C818981981768F3DA
:100AD00005C080E097DE8D818F5F8D838D818823B7
:100AE000C1F780917A0060E044E05DDF29960FB69F
:100AF000F894DEBF0FBECDBFCF91DF910895DF9395
:100B0000CF930F92CDB7DEB7A2E3B0E0E2E3F0E01F
:100B100080818F7E8C93E7E3F0E081EB8083E8E3D4
:100B2000F0E081E48083A8E3B0E0E8E3F0E08081D6
:100B30008F778C93A8E3B0E0E8E3F0E080818062F7
:100B40008C9311DE81E090E018D00F90CF91DF916F
:100B50000895DF93CF93CDB7DEB7E7E3F0E01082DF
:100B6000E8E3F0E01082A2E3B0E0E2E3F0E08081AD
:100B700080618C93CF91DF910895DF93CF930F9293
:100B8000CDB7DEB789838981882341F0A8E3B0E03F
:100B9000E8E3F0E0808180618C930EC0A8E3B0E0D0
:100BA000E8E3F0E080818F7E8C93A8E3B0E0E8E397
:100BB000F0E080818F778C930F90CF91DF91089533
:100BC000DF93CF93CDB7DEB780E0D7DFCCDD81E018
:100BD000D4DFC9DD80E0D1DFC6DD81E0CEDFF1DD2D
:100BE000CF91DF910895DF93CF9300D000D00F9283
:100BF000CDB7DEB78AEF8093D00081DFE2DD1982C6
:100C00000CC082E690E09E012E5F3F4FB90144E0A8
:100C100050E046DE89818F5F8983CE01029679DEBE
:100C2000882319F48981853060F38981853011F436
:100C300090DF11C070DD86E690E09E012E5F3F4F91
:100C4000B90144E050E02CDEBCDDBBDD7CDE813050
:100C500009F4D7DE7EDF0F900F900F900F900F906A
:100C6000CF91DF91089597FB092E07260AD077FDD3
:100C700004D027D006D000201AF4709561957F4FDC
:100C80000895F6F7909581959F4F089597FB092E4B
:100C900005260ED057FD04D028D00AD0001C38F409
:100CA00050954095309521953F4F4F4F5F4F089598
:100CB000F6F790958095709561957F4F8F4F9F4F78
:100CC0000895AA1BBB1B51E107C0AA1FBB1FA61793
:100CD000B70710F0A61BB70B881F991F5A95A9F7E5
:100CE00080959095BC01CD010895A1E21A2EAA1B12
:100CF000BB1BFD010DC0AA1FBB1FEE1FFF1FA217CC
:100D0000B307E407F50720F0A21BB30BE40BF50BC8
:100D1000661F771F881F991F1A9469F76095709551
:100D2000809590959B01AC01BD01CF010895F89489
:020D3000FFCFF3
:100D3200D25AAC5300FFAC800000400000002000FB
:100D420000005000000003000000B280110680FA8B
:100D52007E087AFF7BFFDBFEDAFADEF6227E107A6D
:100D6200FF7BFFDBFEDAFADEF6227E047AFF7BFFF0
:080D7200DBFEDAFADEF62200D6
:00000001FF
