:100000002EC049C047C046C045C044C043C042C0DE
:1000100041C040C03FC03EC03DC03CC03BC03AC0F4
:1000200039C038C037C036C035C012010101FF00E9
:10003000000881179F0C0401000000010902120052
:1000400001010080320904000000FF00000000CD23
:10005000D914F13C28E5A16C78B5509D8944112450
:100060001FBECFE5D1E0DEBFCDBF10E0A0E6B0E01F
:10007000E0E4FEE002C005900D92AC3CB107D9F778
:1000800011E0ACECB0E001C01D92AB32B107E1F77A
:100090007ED2D4C6B5CF0F931F932F93DF93CF9308
:1000A0000FB70F938299FECF82990BC0829909C036
:1000B000829907C0829905C0829903C000E40ABFF3
:1000C000A8C0C0911301DD27CC5EDE4F0BE01CE021
:1000D00024E0829BE9CF3F934F936F9360B330E866
:1000E00003C060B3432B499344276C7026272150EB
:1000F00020B32C70A9F137953C3FA0F562276150E1
:1001000060B36C7037953C3F98F5262721503795A2
:1001100020B32C703C3F90F56227615037953C3FEF
:1001200060B36C70A0F52627215037953C3FC8F589
:1001300020B32C706227615037953C3FB0F50A958B
:1001400060B37AF06C702627215037953C3F88F5D4
:1001500020B32C706227615037953C3F10F22DC0C0
:1001600031C048C0612720B32C703F774160C6CFB3
:100170003F77426060B36C702127C7CF3F77446000
:10018000612720B32C70622761503795C8CF3F7725
:1001900048602127316060B36C7026272150379565
:1001A000C6CF3F7740616127C1CF3F7740622127AB
:1001B000C4CF3F7740646127C9CF3F77406821278C
:1001C00000C08FCF30E43ABF0B500195033090F060
:1001D000C01B2881233C91F12B3481F119811F77B9
:1001E00040912A01141731F42936D9F02D3249F003
:1001F000213E39F044274093CC006F914F913F91BD
:1002000008C02093CC006F914F913F910AB706FD33
:1002100049CF0F910FBFCF91DF912F911F910F9178
:100220001895009105010023F1F04091120144233B
:10023000D1F440930501C6E0D1E018C02091CC0074
:100240002223C1F240911201442369F40093120168
:1002500020931101009113014BE0401B40931301C7
:10026000C0E6D0E002C0C1E6D0E001E022B3237FC7
:10027000286011B31C6022BB11BB1CE030E830FFCA
:10028000212722BB379547954C3FC0F530FF2127EA
:10029000379522BB47954C3FA8F530FF212737956E
:1002A000000022BB47954C3F78F530FF212737955A
:1002B000000022BB47954C3F48F530FF212769914C
:1002C00022BB379547954C3F18F530FF21273795CE
:1002D00022BB47954C3F00F530FF212737954795C6
:1002E00022BB4C3FD8F430FF21273795362F479556
:1002F00022BB4C3FA8F40A9512F614C021274427CC
:1003000022BBC2CF2127C5CF2127CBCF2127D1CFD9
:100310002127442722BBD7CF2127DACF2127DFCFC0
:100320002127E5CF237F22BB6F914F913F9100E4BE
:100330000ABFDF91CF9111B3022F286022BB137F38
:10034000DFBFDF912F91000011BB02BB1F910F9106
:100350001895DF93CF93CDB7DEB78091CD00082EEF
:1003600000C000000A94E1F7CF91DF910895DF9378
:10037000CF93CDB7DEB729970FB6F894DEBF0FBE87
:10038000CDBF9D838C837F836E835987488753C0FD
:1003900088859985019799878887EC81FD8180817F
:1003A0008B838C819D8101969D838C831A8280E84A
:1003B000898335C08B8199818923882339F0A8E30B
:1003C000B0E0E8E3F0E0808180628C93C2DFA8E3D4
:1003D000B0E0E8E3F0E0808180688C93BADF8A8146
:1003E000880F8A83E6E3F0E08081882F90E08074B4
:1003F0009070009719F08A818F5F8A83A8E3B0E03C
:10040000E8E3F0E080818F778C93A8E3B0E0E8E345
:10041000F0E080818F7D8C938981869589838981A5
:10042000882341F6EE81FF818A8180838E819F81BE
:1004300001969F838E8388859985009709F0A8CFC0
:1004400029960FB6F894DEBF0FBECDBFCF91DF91D6
:100450000895DF93CF9300D000D00F92CDB7DEB7D1
:100460001D828091DD00882F90E0877090709A83C4
:1004700089838091D0009091D1009C838B830196D9
:100480009093D1008093D0008091D4008093D500C8
:100490008091DD00882F90E0887390700097A9F418
:1004A0008091D40088238CF08B819C818170907026
:1004B000882329F08091D50088608093D5008B81B6
:1004C0009C81969587959C838B838B819C81892FBA
:1004D00099278093D6008B818093D7008091DD008F
:1004E000882F90E0887390708031910581F480911D
:1004F000D600880F880F880F8093D6009091D60081
:100500008091D400892B8093D60081E08D838D81EA
:10051000882F90E08B529F4F49815A8129ED30E01E
:10052000B90125DF0F900F900F900F900F90CF9192
:10053000DF910895DF93CF9300D00F92CDB7DEB750
:100540009A8389830F900F900F90CF91DF91089538
:10055000DF93CF9300D000D0CDB7DEB79A838983E5
:100560006B830F900F900F900F90CF91DF910895B4
:10057000DF93CF9300D00F92CDB7DEB79A838983F4
:100580006B830F900F900F90CF91DF910895A2E3AE
:10059000B0E0E2E3F0E0808180618C93E1E3F0E0A1
:1005A00080E78083E2E3F0E080E58083CAD2FFCF7A
:1005B000DF93CF9300D000D000D0CDB7DEB79D83BE
:1005C0008C836E8326960FB6F894DEBF0FBECDBF28
:1005D000CF91DF910895DF93CF93CDB7DEB72A9700
:1005E0000FB6F894DEBF0FBECDBF9091060188E82C
:1005F0008927809306018091DF008A878A85893068
:1006000010F088E08A8787E091E09F838E838A8557
:10061000882309F45BC08091DE00833031F48E8141
:100620009F816A8595DF8A874BC08091E000909119
:10063000E100998788878091DE008130D1F41D82A6
:1006400013C0E885F9858081EE81FF8180838E81EA
:100650009F8101969F838E838885998501969987CE
:1006600088878D818F5F8D839D818A85981748F358
:1006700021C01D821BC0888599859B838A83EA815E
:10068000FB818491898389818C83888599850196F2
:1006900099878887EE81FF818C8180838E819F81FD
:1006A00001969F838E838D818F5F8D839D818A8547
:1006B000981708F3888599859093E1008093E0006E
:1006C0008091DF009A85891B8093DF0087E091E0AD
:1006D0006A8593D38A858D5F809305018A858830EA
:1006E00010F41092DE002A960FB6F894DEBF0FBE0B
:1006F000CDBFCF91DF910895DF93CF93CDB7DEB714
:10070000A5E5B0E0E5E5F0E0808183608C93ABE5A2
:10071000B0E0EBE5F0E0808180648C937894CF9139
:10072000DF910895DF93CF930F92CDB7DEB780911D
:1007300012018823B1F080911301282F30E08CE062
:1007400090E0821B930B9C012C5E3E4F8091120126
:10075000482F4350C901642F2BDF109205011092DE
:10076000120180910501882351F48091DE008823D5
:1007700011F031DF04C08091E20080932A018AE009
:10078000898303C08981815089838981882349F0C5
:10079000E0E3F0E08081882F90E08870907000970F
:1007A00089F38981882311F41092E2000F90CF9190
:1007B000DF910895DF93CF93CDB7DEB78091E3004B
:1007C000082E00C000000A94E1F7CF91DF91089550
:1007D000DF93CF93CDB7DEB729970FB6F894DEBF7E
:1007E0000FBECDBF9D838C837F836E8359874887DF
:1007F00053C088859985019799878887EC81FD8109
:1008000080818B838C819D8101969D838C831A824C
:1008100080E8898335C08B8199818923882339F0C9
:10082000A8E3B0E0E8E3F0E0808180628C93C2DF6F
:10083000A8E3B0E0E8E3F0E0808180688C93BADF61
:100840008A81880F8A83E6E3F0E08081882F90E038
:1008500080749070009719F08A818F5F8A83A8E373
:10086000B0E0E8E3F0E080818F778C93A8E3B0E01C
:10087000E8E3F0E080818F7D8C9389818695898380
:100880008981882341F6EE81FF818A8180838E8170
:100890009F8101969F838E8388859985009709F0B3
:1008A000A8CF29960FB6F894DEBF0FBECDBFCF916B
:1008B000DF910895DF93CF9300D000D00F92CDB792
:1008C000DEB71D828091F300882F90E087709070D2
:1008D0009A8389838091E6009091E7009C838B83C3
:1008E00001969093E7008093E6008091EA00809360
:1008F000EB008091F300882F90E088739070009750
:10090000A9F48091EA0088238CF08B819C8181700E
:100910009070882329F08091EB0088608093EB0031
:100920008B819C81969587959C838B838B819C8101
:10093000892F99278093EC008B818093ED00809123
:10094000F300882F90E0887390708031910581F4D6
:100950008091EC00880F880F880F8093EC009091B5
:10096000EC008091EA00892B8093EC0081E08D837C
:100970008D81882F90E085519F4F49815A812FEEBC
:1009800030E0B90125DF0F900F900F900F900F907E
:10099000CF91DF910895DF93CF93CDB7DEB7CF919D
:1009A000DF910895DF93CF9300D00F92CDB7DEB7DC
:1009B0008B83198280E88A8335C0A8E3B0E0E8E33E
:1009C000F0E0808180688C939B818A8189238823D1
:1009D00039F0A8E3B0E0E8E3F0E0808180628C9336
:1009E000E9DE8981880F8983E6E3F0E08081882F42
:1009F00090E080749070009719F089818F5F8983EF
:100A0000A8E3B0E0E8E3F0E080818F778C93D2DE5A
:100A1000A8E3B0E0E8E3F0E080818F7D8C938A81E9
:100A200086958A838A81882341F689810F900F9069
:100A30000F90CF91DF910895DF93CF93CDB7DEB7BD
:100A400029970FB6F894DEBF0FBECDBF9D838C8370
:100A50007F836E83598748871BC088859985019756
:100A600099878887EC81FD8180818B838C819D8132
:100A700001969D838C831A828B8194DF8A83EE8119
:100A8000FF818A8180838E819F8101969F838E83DF
:100A900088859985009709F729960FB6F894DEBFE7
:100AA0000FBECDBFCF91DF910895DF93CF9300D0DC
:100AB00000D0CDB7DEB719821A821B821C8209C012
:100AC0008EE690E09E012F5F3F4FB90144E050E079
:100AD000B3DF8C818F3FA1F70F900F900F900F9095
:100AE000CF91DF910895DF93CF93CDB7DEB72797EE
:100AF0000FB6F894DEBF0FBECDBF8D836E834F83DC
:100B00008D81809519821A821B828C838E818093BD
:100B100070000AC08F81482F50E08EE690E09E0161
:100B20002F5F3F4FB90188DF9C818D81981791F726
:100B300027960FB6F894DEBF0FBECDBFCF91DF91E1
:100B40000895DF93CF93CDB7DEB728970FB6F8940B
:100B5000DEBF0FBECDBF1C828DE28A83A2E3B0E070
:100B6000E2E3F0E080818F7E8C93E7E3F0E081EBBD
:100B70008083E8E3F0E08981808382E690E09E0153
:100B80002B5F3F4FB90144E050E056DF86E690E02E
:100B90009E012B5F3F4FB90144E050E04DDF85DF00
:100BA0001B8220C08C8180936C008B81882F90E009
:100BB000FC01E156FF4F808180936D008AE690E052
:100BC0009E012B5F3F4FB90144E050E035DF80913B
:100BD0006D006C8144E087DF8B818F5F8B838C811C
:100BE0008F5F8C839B818A819817E0F2E7E3F0E0C6
:100BF0001082E8E3F0E01082A2E3B0E0E2E3F0E08C
:100C0000808180618C9328960FB6F894DEBF0FBE6A
:100C1000CDBFCF91DF910895DF93CF93CDB7DEB7EE
:100C20008091F400082E00C000000A94E1F7CF91F3
:100C3000DF910895DF93CF93CDB7DEB729970FB635
:100C4000F894DEBF0FBECDBF9D838C837F836E8300
:100C50005987488753C088859985019799878887E0
:100C6000EC81FD8180818B838C819D8101969D83A8
:100C70008C831A8280E8898335C08B81998189238E
:100C8000882339F0A8E3B0E0E8E3F0E080818062F7
:100C90008C93C2DFA8E3B0E0E8E3F0E080818068F5
:100CA0008C93BADF8A81880F8A83E6E3F0E0808143
:100CB000882F90E080749070009719F08A818F5F80
:100CC0008A83A8E3B0E0E8E3F0E080818F778C933B
:100CD000A8E3B0E0E8E3F0E080818F7D8C93898128
:100CE000869589838981882341F6EE81FF818A81F7
:100CF00080838E819F8101969F838E8388859985CD
:100D0000009709F0A8CF29960FB6F894DEBF0FBE62
:100D1000CDBFCF91DF910895DF93CF9300D000D066
:100D20000F92CDB7DEB71D8280910401882F90E02D
:100D3000877090709A8389838091F7009091F80072
:100D40009C838B8301969093F8008093F7008091A9
:100D5000FB008093FC0080910401882F90E0887351
:100D600090700097A9F48091FB0088238CF08B8110
:100D70009C8181709070882329F08091FC008860AC
:100D80008093FC008B819C81969587959C838B83B7
:100D90008B819C81892F99278093FD008B81809383
:100DA000FE0080910401882F90E08873907080315C
:100DB000910581F48091FD00880F880F880F809342
:100DC000FD009091FD008091FB00892B8093FD0038
:100DD00081E08D838D81882F90E084509F4F4981E1
:100DE0005A8120E031E0B90125DF0F900F900F907C
:100DF0000F900F90CF91DF910895DC019FEF8FEF5F
:100E0000660FB9F04EE4F0E0229560FF2D91E82FD7
:100E1000E227EF70929582958F70392F307F832B68
:100E20009F70E40F359193273170932783276A953C
:100E300059F7809590958D939D930895F894FFCFE1
:100E4000D25AAC530000AC800000400000002000EB
:100E50000000B280112080FA7E087AFF7BFFDBFE63
:100E6000DAFADEF6227E107AFF7BFFDBFEDAFADEAC
:100E7000F6227E047AFF7BFFDBFEDAFADEF622B290
:100E800080110680FA7E087AFF7BFFDBFEDAFADE4D
:100E9000F6227E107AFF7BFFDBFEDAFADEF6227E98
:0C0EA000047AFF7BFFDBFEDAFADEF622AC
:00000001FF
