:100000002EC03DC03CC03BC03AC039C038C037C02C
:1000100036C035C034C033C032C031C030C02FC04C
:100020002EC02DC02CC02BC02AC000CDD914F13C4D
:1000300028E5A16C78B5509D894412010101FF00AB
:10004000000881179F0C0401000000010902120042
:1000500001010080320904000000FF0000001124AB
:100060001FBECFE5D1E0DEBFCDBF10E0A2E6B0E01D
:1000700001C01D92AF39B107E1F7C5D2A5C3C0CF0A
:10008000DC019FEF8FEF660FB9F04AE2F0E02295B6
:1000900060FF2D91E82FE227EF70929582958F7087
:1000A000392F307F832B9F70E40F35919327317068
:1000B000932783276A9559F7809590958D939D9303
:1000C00008950F931F932F93DF93CF930FB70F9341
:1000D0008299FECF82990BC0829909C0829907C08C
:1000E000829905C0829903C000E40ABFA8C0C091EC
:1000F0008700DD27C857DF4F0BE01CE024E0829B20
:10010000E9CF3F934F936F9360B330E803C060B380
:10011000432B499344276C702627215020B32C7021
:10012000A9F137953C3FA0F56227615060B36C7030
:1001300037953C3F98F526272150379520B32C70F2
:100140003C3F90F56227615037953C3F60B36C703F
:10015000A0F52627215037953C3FC8F520B32C70D9
:100160006227615037953C3FB0F50A9560B37AF04D
:100170006C702627215037953C3F88F520B32C70B2
:100180006227615037953C3F10F22DC031C048C006
:10019000612720B32C703F774160C6CF3F77426024
:1001A00060B36C702127C7CF3F774460612720B3CD
:1001B0002C70622761503795C8CF3F774860212760
:1001C000316060B36C70262721503795C6CF3F77DA
:1001D00040616127C1CF3F7740622127C4CF3F777D
:1001E00040646127C9CF3F774068212700C08FCF87
:1001F00030E43ABF0B500195033090F0C01B2881CA
:10020000233C91F12B3481F119811F7740919E009D
:10021000141731F42936D9F02D3249F0213E39F046
:100220004427409362006F914F913F9108C0209303
:1002300062006F914F913F910AB706FD49CF0F9130
:100240000FBFCF91DF912F911F910F9118950091C2
:1002500079000023F1F0409186004423D1F44093CB
:100260007900CAE7D0E018C0209162002223C1F2D1
:1002700040918600442369F4009386002093850012
:10028000009187004BE0401B40938700C0E6D0E020
:1002900002C0C1E6D0E001E022B3237F286011B3A1
:1002A0001C6022BB11BB1CE030E830FF212722BBC1
:1002B000379547954C3FC0F530FF2127379522BB36
:1002C00047954C3FA8F530FF21273795000022BB0A
:1002D00047954C3F78F530FF21273795000022BB2A
:1002E00047954C3F48F530FF2127699122BB379550
:1002F00047954C3F18F530FF2127379522BB47958E
:100300004C3F00F530FF21273795479522BB4C3FE6
:10031000D8F430FF21273795362F479522BB4C3F25
:10032000A8F40A9512F614C02127442722BBC2CF95
:100330002127C5CF2127CBCF2127D1CF2127442764
:1003400022BBD7CF2127DACF2127DFCF2127E5CF47
:10035000237F22BB6F914F913F9100E40ABFDF9151
:10036000CF9111B3022F286022BB137FDFBFDF9133
:100370002F91000011BB02BB1F910F9118951F9385
:10038000FC01DB017091630023C0108190E060E804
:1003900020E030E0862F812309F0C59A072E00C0A7
:1003A00000000A94E1F7C79A072E00C000000A94E3
:1003B000E1F7990FB6999F5FC798C59866952F5F2B
:1003C0003F4F2830310531F74150504031969D93D1
:1003D00041155105D1F61F91089540917300209168
:1003E0006600309167002F5F3F4F30936700209386
:1003F00066002150304090916A0090936B00642F0A
:1004000070E0687370706115710551F497FD08C054
:1004100020FF04C0892F886080936B003695279554
:10042000832F30936C0020936D006031710511F0C3
:1004300080E007C0880F880F880F892B80936C009D
:1004400081E090E050E04770507085599F4F6FE613
:1004500070E095DF0895FC012181253089F48281C7
:10046000809363008481882311F091E101C091E0C1
:1004700084E080937300949881EB87BB98BB05C0A0
:10048000263029F417BA18BA949A90E04BC02F304E
:1004900039F4828180937300848180936A00F5CF60
:1004A000273039F40296BF0144E050E068DF94E061
:1004B00039C02E3039F40296BF0141E050E05FDFD1
:1004C00091E030C0283039F48281809364008381C8
:1004D00080936500DACF8481958190936700809343
:1004E0006600293019F49FEF20E216C02B3019F472
:1004F0009FEF20EA11C082819381909369008093DD
:1005000068002A3019F490E020E406C02C3019F479
:1005100090E020EC01C090E080917300887311F4AA
:1005200020936A00892F08950F931F93CF93DF9331
:10053000062FEC0110E005C050DF80917200899316
:100540001F5F1017C8F3802FDF91CF911F910F917C
:1005500008957F928F929F92AF92BF92CF92DF9237
:10056000EF92FF920F931F93CF93DF93862EA0906D
:100570006800B090690090906400C0906500209180
:100580006300E22EFF2425E0EE0CFF1C2A95E1F724
:100590008C01DD2490E6792E26C0F80180818093BD
:1005A0006E001BDF80916B00872580936B00C0E09D
:1005B000D0E013C08BE690E06FE670E044E050E0DE
:1005C000DEDE9091720080916E00981721F49915EB
:1005D00011F09C1529F4CE0DDF1DCA15DB0550F373
:1005E000D3940F5F1F4FD814C0F2DF91CF911F91AA
:1005F0000F91FF90EF90DF90CF90BF90AF909F90C2
:100600008F907F900895949A80E781BB04D080E515
:1006100082BB09D0FECF85B7836085BF8BB780646E
:100620008BBF789408951F93CF93DF9360918600DA
:10063000662309F461C080918700CCE0D0E0C81B3C
:10064000D109C857DF4F81E0809374008091850005
:100650008D3209F043C01E818F8181111FEF888187
:10066000807661F58981882321F41882198292E0CD
:100670002DC0853021F48A81809378009FC0863018
:1006800091F482E0809374008B81813021F492E1B7
:10069000CAE3D0E01BC0823009F090C0959A92E185
:1006A000CCE4D0E013C0883019F481E0888304C022
:1006B0008A3009F083C0188291E008C0CE01CBDEF9
:1006C000982F8F3F19F483E080937400191708F076
:1006D000192FD0937700C093760005C0635011F0B6
:1006E000CE0137DF10E01093750083EC80937A0021
:1006F000109279001092860080917900882309F089
:1007000053C020917400222309F44AC080917A00DA
:1007100098E8892780937A0010917500193010F0BD
:1007200018E002C0112379F1233031F48BE790E017
:10073000612FFADE182F22C03091760040917700A9
:10074000213061F4832F942FFC01ABE7B0E081915D
:100750008D938E2F831B8117D0F30CC0832F942F82
:10076000FC01ABE7B0E0849131968D938E2F831B13
:100770008117C8F3F0937700E093760080917500BD
:10078000811B809375008BE790E0612F79DC1D5F02
:10079000109379001350183038F41092740004C08C
:1007A0008091780080939E008AE002C0815019F009
:1007B000839BFCCF05C01092780002C090E088CFE8
:0C07C000DF91CF911F910895F894FFCFB6
:0207CC00D25AFF
:00000001FF
