:100000002EC049C047C046C045C044C043C042C0DE
:1000100041C040C03FC03EC03DC03CC03BC03AC0F4
:1000200039C038C037C036C035C012010101FF00E9
:10003000000881179F0C0401000000010902120052
:1000400001010080320904000000FF00000000CD23
:10005000D914F13C28E5A16C78B5509D8944112450
:100060001FBECFE5D1E0DEBFCDBF10E0A0E6B0E01F
:10007000E2E0FFE002C005900D92A43DB107D9F780
:1000800011E0A4EDB0E001C01D92A333B107E1F788
:100090007ED235C7B5CF0F931F932F93DF93CF93A6
:1000A0000FB70F938299FECF82990BC0829909C036
:1000B000829907C0829905C0829903C000E40ABFF3
:1000C000A8C0C0911B01DD27C45EDE4F0BE01CE021
:1000D00024E0829BE9CF3F934F936F9360B330E866
:1000E00003C060B3432B499344276C7026272150EB
:1000F00020B32C70A9F137953C3FA0F562276150E1
:1001000060B36C7037953C3F98F5262721503795A2
:1001100020B32C703C3F90F56227615037953C3FEF
:1001200060B36C70A0F52627215037953C3FC8F589
:1001300020B32C706227615037953C3FB0F50A958B
:1001400060B37AF06C702627215037953C3F88F5D4
:1001500020B32C706227615037953C3F10F22DC0C0
:1001600031C048C0612720B32C703F774160C6CFB3
:100170003F77426060B36C702127C7CF3F77446000
:10018000612720B32C70622761503795C8CF3F7725
:1001900048602127316060B36C7026272150379565
:1001A000C6CF3F7740616127C1CF3F7740622127AB
:1001B000C4CF3F7740646127C9CF3F77406821278C
:1001C00000C08FCF30E43ABF0B500195033090F060
:1001D000C01B2881233C91F12B3481F119811F77B9
:1001E00040913201141731F42936D9F02D3249F0FB
:1001F000213E39F044274093D4006F914F913F91B5
:1002000008C02093D4006F914F913F910AB706FD2B
:1002100049CF0F910FBFCF91DF912F911F910F9178
:10022000189500910D010023F1F040911A0144232B
:10023000D1F440930D01CEE0D1E018C02091D4005C
:100240002223C1F240911A01442369F400931A0158
:100250002093190100911B014BE0401B40931B01AF
:10026000C0E6D0E002C0C1E6D0E001E022B3237FC7
:10027000286011B31C6022BB11BB1CE030E830FFCA
:10028000212722BB379547954C3FC0F530FF2127EA
:10029000379522BB47954C3FA8F530FF212737956E
:1002A000000022BB47954C3F78F530FF212737955A
:1002B000000022BB47954C3F48F530FF212769914C
:1002C00022BB379547954C3F18F530FF21273795CE
:1002D00022BB47954C3F00F530FF212737954795C6
:1002E00022BB4C3FD8F430FF21273795362F479556
:1002F00022BB4C3FA8F40A9512F614C021274427CC
:1003000022BBC2CF2127C5CF2127CBCF2127D1CFD9
:100310002127442722BBD7CF2127DACF2127DFCFC0
:100320002127E5CF237F22BB6F914F913F9100E4BE
:100330000ABFDF91CF9111B3022F286022BB137F38
:10034000DFBFDF912F91000011BB02BB1F910F9106
:100350001895DF93CF93CDB7DEB78091D500082EE7
:1003600000C000000A94E1F7CF91DF910895DF9378
:10037000CF93CDB7DEB729970FB6F894DEBF0FBE87
:10038000CDBF9D838C837F836E835987488753C0FD
:1003900088859985019799878887EC81FD8180817F
:1003A0008B838C819D8101969D838C831A8280E84A
:1003B000898335C08B8199818923882339F0A8E30B
:1003C000B0E0E8E3F0E0808180628C93C2DFA8E3D4
:1003D000B0E0E8E3F0E0808180688C93BADF8A8146
:1003E000880F8A83E6E3F0E08081882F90E08074B4
:1003F0009070009719F08A818F5F8A83A8E3B0E03C
:10040000E8E3F0E080818F778C93A8E3B0E0E8E345
:10041000F0E080818F7D8C938981869589838981A5
:10042000882341F6EE81FF818A8180838E819F81BE
:1004300001969F838E8388859985009709F0A8CFC0
:1004400029960FB6F894DEBF0FBECDBFCF91DF91D6
:100450000895DF93CF9300D000D00F92CDB7DEB7D1
:100460001D828091E500882F90E0877090709A83BC
:1004700089838091D8009091D9009C838B830196C9
:100480009093D9008093D8008091DC008093DD00A8
:100490008091E500882F90E0887390700097A9F410
:1004A0008091DC0088238CF08B819C81817090701E
:1004B000882329F08091DD0088608093DD008B81A6
:1004C0009C81969587959C838B838B819C81892FBA
:1004D00099278093DE008B818093DF008091E50077
:1004E000882F90E0887390708031910581F480911D
:1004F000DE00880F880F880F8093DE009091DE0069
:100500008091DC00892B8093DE0081E08D838D81DA
:10051000882F90E083529F4F49815A8121EE30E02D
:10052000B90125DF0F900F900F900F900F90CF9192
:10053000DF910895DF93CF9300D00F92CDB7DEB750
:100540009A8389830F900F900F90CF91DF91089538
:10055000DF93CF9300D000D0CDB7DEB79A838983E5
:100560006B830F900F900F900F90CF91DF910895B4
:10057000DF93CF9300D00F92CDB7DEB79A838983F4
:100580006B830F900F900F90CF91DF910895A2E3AE
:10059000B0E0E2E3F0E0808180618C93E1E3F0E0A1
:1005A00080E78083E2E3F0E080E5808373D3FFCFD0
:1005B000DF93CF9300D000D000D0CDB7DEB79D83BE
:1005C0008C836E8326960FB6F894DEBF0FBECDBF28
:1005D000CF91DF910895DF93CF93CDB7DEB72A9700
:1005E0000FB6F894DEBF0FBECDBF90910E0188E824
:1005F000892780930E018091E7008A878A85893058
:1006000010F088E08A878FE091E09F838E838A854F
:10061000882309F45BC08091E600833031F48E8139
:100620009F816A8595DF8A874BC08091E800909111
:10063000E900998788878091E6008130D1F41D8296
:1006400013C0E885F9858081EE81FF8180838E81EA
:100650009F8101969F838E838885998501969987CE
:1006600088878D818F5F8D839D818A85981748F358
:1006700021C01D821BC0888599859B838A83EA815E
:10068000FB818491898389818C83888599850196F2
:1006900099878887EE81FF818C8180838E819F81FD
:1006A00001969F838E838D818F5F8D839D818A8547
:1006B000981708F3888599859093E9008093E8005E
:1006C0008091E7009A85891B8093E7008FE091E095
:1006D0006A85F4D38A858D5F80930D018A85883081
:1006E00010F41092E6002A960FB6F894DEBF0FBE03
:1006F000CDBFCF91DF910895DF93CF93CDB7DEB714
:10070000A5E5B0E0E5E5F0E0808183608C93ABE5A2
:10071000B0E0EBE5F0E0808180648C937894CF9139
:10072000DF910895DF93CF930F92CDB7DEB780911D
:100730001A018823B1F080911B01282F30E08CE052
:1007400090E0821B930B9C01245E3E4F80911A0126
:10075000482F4350C901642F2BDF10920D011092D6
:100760001A0180910D01882351F48091E6008823BD
:1007700011F031DF04C08091EA00809332018AE0F9
:10078000898303C08981815089838981882349F0C5
:10079000E0E3F0E08081882F90E08870907000970F
:1007A00089F38981882311F41092EA000F90CF9188
:1007B000DF910895DF93CF93CDB7DEB78091EB0043
:1007C000082E00C000000A94E1F7CF91DF91089550
:1007D000DF93CF93CDB7DEB729970FB6F894DEBF7E
:1007E0000FBECDBF9D838C837F836E8359874887DF
:1007F00053C088859985019799878887EC81FD8109
:1008000080818B838C819D8101969D838C831A824C
:1008100080E8898335C08B8199818923882339F0C9
:10082000A8E3B0E0E8E3F0E0808180628C93C2DF6F
:10083000A8E3B0E0E8E3F0E0808180688C93BADF61
:100840008A81880F8A83E6E3F0E08081882F90E038
:1008500080749070009719F08A818F5F8A83A8E373
:10086000B0E0E8E3F0E080818F778C93A8E3B0E01C
:10087000E8E3F0E080818F7D8C9389818695898380
:100880008981882341F6EE81FF818A8180838E8170
:100890009F8101969F838E8388859985009709F0B3
:1008A000A8CF29960FB6F894DEBF0FBECDBFCF916B
:1008B000DF910895DF93CF9300D000D00F92CDB792
:1008C000DEB71D828091FB00882F90E087709070CA
:1008D0009A8389838091EE009091EF009C838B83B3
:1008E00001969093EF008093EE008091F200809348
:1008F000F3008091FB00882F90E088739070009740
:10090000A9F48091F20088238CF08B819C81817006
:100910009070882329F08091F30088608093F30021
:100920008B819C81969587959C838B838B819C8101
:10093000892F99278093F4008B818093F500809113
:10094000FB00882F90E0887390708031910581F4CE
:100950008091F400880F880F880F8093F4009091A5
:10096000F4008091F200892B8093F40081E08D8364
:100970008D81882F90E08D509F4F49815A8127EFBC
:1009800030E0B90125DF0F900F900F900F900F907E
:10099000CF91DF910895DF93CF93CDB7DEB7CF919D
:1009A000DF910895DF93CF9300D00F92CDB7DEB7DC
:1009B0008B83198280E88A8335C0A8E3B0E0E8E33E
:1009C000F0E0808180688C939B818A8189238823D1
:1009D00039F0A8E3B0E0E8E3F0E0808180628C9336
:1009E000E9DE8981880F8983E6E3F0E08081882F42
:1009F00090E080749070009719F089818F5F8983EF
:100A0000A8E3B0E0E8E3F0E080818F778C93D2DE5A
:100A1000A8E3B0E0E8E3F0E080818F7D8C938A81E9
:100A200086958A838A81882341F689810F900F9069
:100A30000F90CF91DF910895DF93CF93CDB7DEB7BD
:100A400029970FB6F894DEBF0FBECDBF9D838C8370
:100A50007F836E83598748871BC088859985019756
:100A600099878887EC81FD8180818B838C819D8132
:100A700001969D838C831A828B8194DF8A83EE8119
:100A8000FF818A8180838E819F8101969F838E83DF
:100A900088859985009709F729960FB6F894DEBFE7
:100AA0000FBECDBFCF91DF910895DF93CF9300D0DC
:100AB00000D0CDB7DEB719821A821B821C8209C012
:100AC0008EE690E09E012F5F3F4FB90144E050E079
:100AD000B3DF8C818F3FA1F70F900F900F900F9095
:100AE000CF91DF910895DF93CF93CDB7DEB72797EE
:100AF0000FB6F894DEBF0FBECDBF8D836E834F83DC
:100B00008D81809519821A821B828C838E818093BD
:100B100070000AC08F81482F50E08EE690E09E0161
:100B20002F5F3F4FB90188DF9C818D81981791F726
:100B300027960FB6F894DEBF0FBECDBFCF91DF91E1
:100B40000895DF93CF93CDB7DEB727970FB6F8940C
:100B5000DEBF0FBECDBF1B828DE289831A8220C00B
:100B60008B8180936C008A81882F90E0FC01E9558D
:100B7000FF4F808180936D008AE690E09E012C5F9C
:100B80003F4FB90144E050E057DF80916D006B8129
:100B900044E0A9DF8A818F5F8A838B818F5F8B839B
:100BA0009A8189819817E0F227960FB6F894DEBFF4
:100BB0000FBECDBFCF91DF910895DF93CF93CDB717
:100BC000DEB727970FB6F894DEBF0FBECDBF1B82EE
:100BD0008DE2898380917200E5DE80917300E2DE10
:100BE00080917400DFDE1A820EC08A81882F90E027
:100BF000FC01E658FF4F8081D5DE8A818F5F8A83B2
:100C00008B818F5F8B839A818981981770F305C0E0
:100C100080E0C8DE8B818F5F8B838B818034C0F353
:100C200080917A0060E044E05EDF27960FB6F8948A
:100C3000DEBF0FBECDBFCF91DF910895DF93CF937D
:100C40000F92CDB7DEB7A2E3B0E0E2E3F0E080813F
:100C50008F7E8C93E7E3F0E081EB8083E8E3F0E0C4
:100C600081E180830F90CF91DF910895DF93CF933F
:100C7000CDB7DEB7E7E3F0E01082E8E3F0E0108202
:100C8000A2E3B0E0E2E3F0E0808180618C93CF9159
:100C9000DF910895DF93CF9300D000D0CDB7DEB7BA
:100CA000CDDF82E690E09E012F5F3F4FB90144E027
:100CB00050E0C2DE86E690E09E012F5F3F4FB90113
:100CC00044E050E0B9DEF1DE78DFD0DF0F900F9026
:100CD0000F900F90CF91DF910895DF93CF93CDB711
:100CE000DEB78091FC00082E00C000000A94E1F7F6
:100CF000CF91DF910895DF93CF93CDB7DEB72997DA
:100D00000FB6F894DEBF0FBECDBF9D838C837F836B
:100D10006E835987488753C088859985019799873D
:100D20008887EC81FD8180818B838C819D810196F8
:100D30009D838C831A8280E8898335C08B81998159
:100D40008923882339F0A8E3B0E0E8E3F0E080816C
:100D500080628C93C2DFA8E3B0E0E8E3F0E080813A
:100D600080688C93BADF8A81880F8A83E6E3F0E09B
:100D70008081882F90E080749070009719F08A81AC
:100D80008F5F8A83A8E3B0E0E8E3F0E080818F77AB
:100D90008C93A8E3B0E0E8E3F0E080818F7D8C9352
:100DA0008981869589838981882341F6EE81FF8137
:100DB0008A8180838E819F8101969F838E8388851F
:100DC0009985009709F0A8CF29960FB6F894DEBF51
:100DD0000FBECDBFCF91DF910895DF93CF9300D0A9
:100DE00000D00F92CDB7DEB71D8280910C01882F05
:100DF00090E0877090709A8389838091FF00909132
:100E000000019C838B830196909300018093FF00E7
:100E1000809103018093040180910C01882F90E060
:100E2000887390700097A9F48091030188238CF057
:100E30008B819C8181709070882329F080910401BE
:100E40008860809304018B819C81969587959C8313
:100E50008B838B819C81892F9927809305018B81BE
:100E60008093060180910C01882F90E08873907028
:100E70008031910581F480910501880F880F880FDA
:100E8000809305019091050180910301892B809346
:100E9000050181E08D838D81882F90E08C5F9E4FCE
:100EA00049815A8128E031E0B90125DF0F900F9088
:100EB0000F900F900F90CF91DF910895DC019FEF7D
:100EC0008FEF660FB9F04EE4F0E0229560FF2D91B0
:100ED000E82FE227EF70929582958F70392F307F3F
:100EE000832B9F70E40F35919327317093278327CD
:100EF0006A9559F7809590958D939D930895F894F0
:020F0000FFCF21
:100F0200D25AAC530000AC80000040000000200028
:100F120000005000000003000000B280112080FA9F
:100F22007E087AFF7BFFDBFEDAFADEF6227E107A9B
:100F3200FF7BFFDBFEDAFADEF6227E047AFF7BFF1E
:100F4200DBFEDAFADEF622B280110680FA7E087A39
:100F5200FF7BFFDBFEDAFADEF6227E107AFF7BFFF2
:100F6200DBFEDAFADEF6227E047AFF7BFFDBFEDAB4
:040F7200FADEF6228B
:00000001FF
