:1000000036C070C04DC04CC04BC04AC049C048C08B
:1000100047C046C045C044C043C042C041C040C0C4
:100020003FC03EC03DC000CDD914F13C28E5A16CD5
:1000300078B5509D89441003550053004200740068
:1000400069006E00790012010101FF0000088117AC
:100050009F0C04010002000109021200010100804E
:10006000320904000000FF00000004030904112409
:100070001FBECFEDCDBF10E0A0E6B0E0E6EFF7E0A9
:1000800002C005900D92A236B107D9F710E0A2E6A2
:10009000B0E001C01D92AF39B107E1F7A3D3AAC305
:1000A000AFCFDC019FEF8FEF660FB9F046E2F0E0D3
:1000B000229560FF2D91E82FE227EF7092958295AF
:1000C0008F70392F307F832B9F70E40F35919327EA
:1000D0003170932783276A9559F7809590958D9372
:1000E0009D9308950F931F932F93DF93CF930FB793
:1000F0000F938299FECF82990BC0829909C0829991
:1001000007C0829905C0829903C000E40ABFA8C055
:10011000C0918700DD27C857DF4F0BE01CE024E0CB
:10012000829BE9CF3F934F936F9360B330E803C056
:1001300060B3432B499344276C702627215020B38A
:100140002C70A9F137953C3FA0F56227615060B350
:100150006C7037953C3F98F526272150379520B392
:100160002C703C3F90F56227615037953C3F60B35F
:100170006C70A0F52627215037953C3FC8F520B379
:100180002C706227615037953C3FB0F50A9560B3FB
:100190007AF06C702627215037953C3F88F520B3C4
:1001A0002C706227615037953C3F10F22DC031C052
:1001B00048C0612720B32C703F774160C6CF3F779E
:1001C000426060B36C702127C7CF3F7744606127DE
:1001D00020B32C70622761503795C8CF3F774860B5
:1001E0002127316060B36C70262721503795C6CF28
:1001F0003F7740616127C1CF3F7740622127C4CF5D
:100200003F7740646127C9CF3F774068212700C00E
:100210008FCF30E43ABF0B500195033090F0C01BF4
:100220002881233C91F12B3481F119811F77409172
:100230009E00141731F42936D9F02D3249F0213EB1
:1002400039F04427409362006F914F913F9108C06D
:10025000209362006F914F913F910AB706FD49CFFD
:100260000F910FBFCF91DF912F911F910F91189593
:10027000009179000023F1F0409186004423D1F4ED
:1002800040937900CAE7D0E018C020916200222391
:10029000C1F240918600442369F4009386002093C4
:1002A0008500009187004BE0401B40938700C0E62B
:1002B000D0E002C0C1E6D0E001E022B3237F286095
:1002C00011B31C6022BB11BB1CE030E830FF2127BA
:1002D00022BB379547954C3FC0F530FF2127379516
:1002E00022BB47954C3FA8F530FF212737950000EA
:1002F00022BB47954C3F78F530FF2127379500000A
:1003000022BB47954C3F48F530FF2127699122BB1E
:10031000379547954C3F18F530FF2127379522BB7D
:1003200047954C3F00F530FF21273795479522BB75
:100330004C3FD8F430FF21273795362F479522BB05
:100340004C3FA8F40A9512F614C02127442722BB7B
:10035000C2CF2127C5CF2127CBCF2127D1CF21271E
:10036000442722BBD7CF2127DACF2127DFCF212770
:10037000E5CF237F22BB6F914F913F9100E40ABFED
:10038000DF91CF9111B3022F286022BB137FDFBF13
:10039000DF912F91000011BB02BB1F910F911895A7
:1003A00085B7836085BF8BB780648BBF78940895D1
:1003B0001F93CF93DF9360918600662309F470C08A
:1003C000809187009927CC27DD27C81BD90BCC56F5
:1003D000DF4F91E090936300809185008D3209F0AA
:1003E00051C01E818F8181111FEF88818076D1F5E8
:1003F0008981882321F41882198292E03BC08530DC
:1004000021F48A8180936700A9C0863009F582E0D3
:10041000809363008B81813019F4C6E4D0E005C07D
:10042000823029F4959AC8E5D0E092E123C0833068
:1004300009F094C08A81882321F4CAE6D0E094E0D0
:1004400019C0823009F08AC0C6E3D0E090E112C042
:10045000883011F4988304C08A3009F07FC0188274
:1004600091E008C0CE01E7D0982F8F3F19F483E0C8
:1004700080936300191708F4912FD0936600C093FE
:10048000650005C0635011F0CE0149D190E0909312
:10049000640083EC80937A001092790010928600B9
:1004A00080917900882309F04FC040916300442374
:1004B00009F446C080917A0098E8892780937A00F1
:1004C00010916400193010F018E002C0112359F1A6
:1004D000433031F4612F8BE790E00BD1182F1EC011
:1004E0002091650030916600413051F4F901ABE78D
:1004F000B0E081918D938E2F821B811758F4F9CF34
:10050000F901ABE7B0E0849131968D938E2F821B79
:100510008117C8F3F0936600E09365008091640052
:10052000811B80936400612F8BE790E0BADD1D5F33
:10053000109379001350183038F41092630004C0FF
:100540008091670080939E008AE002C0815019F07C
:10055000839BFCCF05C01092670002C090E08DCF56
:10056000DF91CF911F9108950F931F93FC01DB0141
:1005700010917800909168002CC04150504000814B
:1005800060E070E820E030E0872F802309F0C59A12
:10059000112329F4092E00C000000A94E1F7C79A3C
:1005A000092E00C000000A94E1F7660FB6996F5F4C
:1005B000C798112329F0092E00C000000A94E1F722
:1005C000C59876952F5F3F4F28303105E9F6319673
:1005D0006D934115510509F0D0CF1F910F910895EA
:1005E00020916B0030916C002F5F3F4F30936C0077
:1005F00020936B002150304080916F0087FF02C034
:10060000220F331F8093700020FF03C08860809307
:100610007000C901892F99278695809371003695BE
:1006200027952093720044E050E064E770E080E793
:1006300090E09ADF0895FC012181253081F48281C8
:10064000809368008481882311F091E101C091E0DA
:1006500010927800949881EB87BB98BB47C02630F6
:1006600021F417BA18BA949A41C02F3021F481E0CE
:10067000809378003BC0273039F444E050E0BC015F
:10068000029672DF84E033C02E3039F441E050E04E
:10069000BC01029669DF81E02AC0283039F48281EA
:1006A00080936900838180936A0020C08481958152
:1006B00090936C0080936B00293011F480E203C0AA
:1006C0002B3029F480EA80936F008FEF10C0828175
:1006D000938190936E0080936D002A3011F480E432
:1006E00003C02C3019F480EC80936F0080E09927D0
:1006F00008950F931F93CF93DF93062FEC0110E023
:1007000005C06EDF8091770089931F5F1017C9F7CE
:10071000802F9927DF91CF911F910F9108954F92CC
:100720005F926F927F928F929F92AF92BF92CF9281
:10073000DF92EF92FF920F931F93CF93DF93462E9A
:10074000A0906D00B0906E0050906900C0906A005B
:1007500020916800E22EFF24E5E0EE0CFF1CEA95F4
:10076000E1F7EC01DD2474E7672E70E0772E60E797
:10077000862E60E0962E23C088818093730030DF40
:100780008091700090E689278093700000E010E06F
:1007900011C044E050E0B301C401E6DE909177005F
:1007A00080917300981721F4951511F09C1529F488
:1007B0000E0D1F1D0A151B0560F3D3942196D4144A
:1007C000D9F6DF91CF911F910F91FF90EF90DF90BD
:1007D000CF90BF90AF909F908F907F906F905F90E1
:1007E0004F900895949A80E781BBDADD80E582BB63
:0607F000DFDDFECFFFCFAC
:0207F600D25AD5
:00000001FF
