:1000000036C070C04DC04CC04BC04AC049C048C08B
:1000100047C046C045C044C043C042C041C040C0C4
:100020003FC03EC03DC000CDD914F13C28E5A16CD5
:1000300078B5509D89441003550053004200740068
:1000400069006E007900040309040902120001012D
:100050000080320904000000FF00000012010101CD
:10006000FF00000881179F0C040100020001112409
:100070001FBECFEDCDBF10E0A0E6B0E0E8EDF7E0A9
:1000800002C005900D92A236B107D9F710E0A2E6A2
:10009000B0E001C01D92AE39B107E1F794D39BC324
:1000A000AFCFDC019FEF8FEF660FB9F046E2F0E0D3
:1000B000229560FF2D91E82FE227EF7092958295AF
:1000C0008F70392F307F832B9F70E40F35919327EA
:1000D0003170932783276A9559F7809590958D9372
:1000E0009D9308950F931F932F93DF93CF930FB793
:1000F0000F938299FECF82990BC0829909C0829991
:1001000007C0829905C0829903C000E40ABFA8C055
:10011000C0918600DD27C957DF4F0BE01CE024E0CB
:10012000829BE9CF3F934F936F9360B330E803C056
:1001300060B3432B499344276C702627215020B38A
:100140002C70A9F137953C3FA0F56227615060B350
:100150006C7037953C3F98F526272150379520B392
:100160002C703C3F90F56227615037953C3F60B35F
:100170006C70A0F52627215037953C3FC8F520B379
:100180002C706227615037953C3FB0F50A9560B3FB
:100190007AF06C702627215037953C3F88F520B3C4
:1001A0002C706227615037953C3F10F22DC031C052
:1001B00048C0612720B32C703F774160C6CF3F779E
:1001C000426060B36C702127C7CF3F7744606127DE
:1001D00020B32C70622761503795C8CF3F774860B5
:1001E0002127316060B36C70262721503795C6CF28
:1001F0003F7740616127C1CF3F7740622127C4CF5D
:100200003F7740646127C9CF3F774068212700C00E
:100210008FCF30E43ABF0B500195033090F0C01BF4
:100220002881233C91F12B3481F119811F77409172
:100230009D00141731F42936D9F02D3249F0213EB2
:1002400039F04427409362006F914F913F9108C06D
:10025000209362006F914F913F910AB706FD49CFFD
:100260000F910FBFCF91DF912F911F910F91189593
:10027000009178000023F1F0409185004423D1F4EF
:1002800040937800C9E7D0E018C020916200222393
:10029000C1F240918500442369F4009385002093C6
:1002A0008400009186004BE0401B40938600C0E62E
:1002B000D0E002C0C1E6D0E001E022B3237F286095
:1002C00011B31C6022BB11BB1CE030E830FF2127BA
:1002D00022BB379547954C3FC0F530FF2127379516
:1002E00022BB47954C3FA8F530FF212737950000EA
:1002F00022BB47954C3F78F530FF2127379500000A
:1003000022BB47954C3F48F530FF2127699122BB1E
:10031000379547954C3F18F530FF2127379522BB7D
:1003200047954C3F00F530FF21273795479522BB75
:100330004C3FD8F430FF21273795362F479522BB05
:100340004C3FA8F40A9512F614C02127442722BB7B
:10035000C2CF2127C5CF2127CBCF2127D1CF21271E
:10036000442722BBD7CF2127DACF2127DFCF212770
:10037000E5CF237F22BB6F914F913F9100E40ABFED
:10038000DF91CF9111B3022F286022BB137FDFBF13
:10039000DF912F91000011BB02BB1F910F911895A7
:1003A00085B7836085BF8BB780648BBF78940895D1
:1003B0000F931F93CF93DF9360918500662309F419
:1003C00070C0809186009927CC27DD27C81BD90BE8
:1003D000CD56DF4F635091E09093630010E0809121
:1003E00084008D3209F04FC00E818F8181110FEF93
:1003F00088818076B9F58981882319F412E0888391
:100400003AC0853021F48A818093670037C08630F6
:1004100001F582E0809363008B81813021F4CCE58B
:10042000D0E012E128C0823029F4CAE4D0E012E121
:10043000959A21C0833011F58A81882321F4C6E47E
:10044000D0E014E018C08230C9F4C6E3D0E010E177
:1004500012C0883011F4988303C08A3079F418836D
:10046000192F09C08C2F9D2FD6D0182F8F3F19F42C
:1004700083E080936300011708F4102FD093660087
:10048000C093650005C0662319F08C2F9D2F38D1CD
:100490001093640083EC809379001092780010929E
:1004A000850030917800332309F04CC0209163001F
:1004B000222309F443C08091790098E8892780932A
:1004C0007900C0916400C93008F0C8E0AAE7B0E044
:1004D000CC2339F1233031F46C2F8A2F9B2FFAD0A3
:1004E000C82F1AC0E0916500F0916600213039F400
:1004F000932F9C1768F481918D939F5FFACF932F70
:100500009C1730F4C895802D31968D939F5FF8CF5E
:10051000F0936600E0936500809164008C1B8093EB
:1005200064006C2F8AE790E0BCDDCD5FC09378005B
:10053000C350C83038F41092630004C08091670043
:1005400080939D008AE0839908C0815011F0839BBD
:10055000FCCF882311F480936700DF91CF911F9126
:100560000F9108951F93FC01DB019091680023C057
:1005700041505040108160E070E820E030E0872F6B
:10058000812309F0C59A092E00C000000A94E1F702
:10059000C79A092E00C000000A94E1F7660FB699C9
:1005A0006F5FC598C79876952F5F3F4F283031050C
:1005B00031F731966D9341155105D1F61F9108958C
:1005C00020916B0030916C002F5F3F4F30936C0097
:1005D00020936B002150304080916F0087FF02C054
:1005E000220F331F8093700020FF03C08860809328
:1005F0007000C901892F99278695809371003695DF
:1006000027952093720044E050E064E770E080E7B3
:1006100090E0A8DF0895FC012181222311F488E0F5
:1006200057C0253071F482818093680084818823CB
:1006300011F091E101C091E0949881EB87BB98BBE8
:1006400046C0263021F417BA18BA949A40C088B32D
:100650008823E9F1273041F444E050E0BF01CF01A5
:10066000029680DF84E034C02E3041F441E050E057
:10067000BF01CF01029676DF81E02AC0283039F42D
:10068000828180936900838180936A0020C0848185
:10069000958190936C0080936B00293011F480E277
:1006A00003C02B3029F480EA80936F008FEF10C0D5
:1006B0008281938190936E0080936D002A3011F4B3
:1006C00080E403C02C3019F480EC80936F0080E04C
:1006D000992708950F931F93CF93DF93062FEC0173
:1006E00010E005C06DDF8091770089931F5F1017C0
:1006F000C9F7802F9927DF91CF911F910F9108950E
:100700004F925F926F927F928F929F92AF92BF9221
:10071000CF92DF92EF92FF920F931F93CF93DF93CD
:10072000462EA0906D00B0906E0050906900C09071
:100730006A0020916800E22EFF24E5E0EE0CFF1C29
:10074000EA95E1F7EC01DD2474E7672E70E0772E7F
:1007500060E7862E60E0962E23C088818093730028
:100760002FDF8091700090E689278093700000E071
:1007700010E011C044E050E0B301C401F3DE9091F9
:10078000770080917300981721F4951511F09C154E
:1007900029F40E0D1F1D0A151B0560F3D394219635
:1007A000D414D9F6DF91CF911F910F91FF90EF9064
:1007B000DF90CF90BF90AF909F908F907F906F9081
:1007C0005F904F900895949A80E781BBE9DD80E5C2
:0807D00082BBEEDDFECFFFCF7E
:0207D800D25AF3
:00000001FF
